:020000040800F2
:100000001007002001010008DD380008B92B0008A6
:10001000B13400083D090008213A00080000000042
:10002000000000000000000000000000E5380008AB
:100030006D0A000800000000E1380008E9380008F7
:100040001B0100081B0100081B0100081B01000820
:100050001B0100081B0100081B0100081B01000810
:100060001B0100081B0100081B0100081B01000800
:100070001B0100081B0100081B0100081B010008F0
:100080001B0100081B0100081B0100081B010008E0
:100090001B0100081B0100081B0100081B010008D0
:1000A0001B0100081B0100081B0100081B010008C0
:1000B000F13800081B0100081B0100081B010008A3
:1000C0001B0100081B0100081B0100081B010008A0
:1000D0001B010008093A0008153A00081B01000836
:1000E0001B0100081B0100081B010008DFF80CD0F1
:1000F00000F0F0FB00480047313F000810070020E7
:100100000648804706480047FEE7FEE7FEE7FEE7B1
:10011000FEE7FEE7FEE7FEE7FEE7FEE7ED38000854
:10012000ED00000840EA01039B0703D009E008C97D
:10013000121F08C0042AFAD203E011F8013B00F8AC
:10014000013B521EF9D27047F0B480EA0102D40F8D
:100150004200B2EB410F02D20246084611464A0065
:1001600042D0C30DDDB2C1F3C752AD1A202D35DA2E
:10017000C1F3160141F4000204B15242C5F1200658
:1001800002FA06F12A411044B3EBD05F23D0C4B188
:10019000012DA0EBC35009DCF0BC4FF0004202EA95
:1001A000C352DBB200F5000000F069BA400000F174
:1001B000807000EBC350A0F1807040EAD17049001C
:1001C00009E0490841EAC071A0EBC35000F5000006
:1001D000400800EBC350F0BC00F048BA6142012275
:1001E00002EB4101001BF6E7F0BC704781F00041D3
:1001F000AAE780F00040A7E780EA010210B502F00C
:100200000043400022D04A001FD0010E01EB1261D2
:10021000C0F35600C2F3560240F4000042F400025C
:10022000A0FB022000047F39140400D0401C50EAD7
:10023000124001D44000491EC2B20C0604EBD0109B
:10024000401C4008802A02D003E0002010BD20F0AE
:100250000100002900DA0020184310BD30B480EA04
:10026000010202F0004530F0004221F0004013D0BE
:1002700090B1C30DD40DC2F31601C0F31600E41AF9
:1002800041F4000140F400027D34914201D3641C2A
:1002900000E04900002C02DA30BC002070474FF427
:1002A00000000023914201D3891A034340084FEA1A
:1002B0004101F7D151B1914202D14FF0004105E027
:1002C00002D24FF0010101E06FF0010103EBC450D5
:1002D000284430BC00F0CAB92DE9FE4F804681EABF
:1002E0000300C00F0C46009021F0004123F00045B0
:1002F000B8EB0200A94105D24046214690461C4673
:100300000B46024623F00040104347D0270DC7F3A9
:100310000A00C3F30A510290401A019040286BDA98
:10032000C3F3130040F4801B0098924620B10023D1
:10033000D2EB030A63EB0B0B01985946C0F1400264
:10034000504600F072F906460D4650465946019A4D
:1003500000F07AF910EB08006141002487EA11529D
:1003600084EAE7731A4340D0009A62B3019A012AE3
:100370004FEA075215DC001B61EB02014FF000420F
:1003800002EA0752CDE90042001C41F580113246D5
:100390002B4600F0B1F903B0BDE8F08F404621468E
:1003A000F9E7001B61EB0201001C41F58013001806
:1003B0005B412018A2F5001747EB030140EAD57016
:1003C000B6196D4111E06D084FEA360645EAC07571
:1003D0004FEA0752001B61EB0201001C41F580113E
:1003E00049084FEA30000019514132462B4603B00C
:1003F000BDE8F04F00F071B90098012240000023E1
:10040000D0EB020263EBE073009821464FEAE07400
:10041000B8EB000061EB0401E9E783F000435BE720
:1004200081F0004158E72DE9FE4F81EA030404F012
:10043000004421F0004100944FF0000B23F00043F2
:1004400050EA01045ED052EA03045BD0C3F30A54BD
:10045000C1F30A552C44A4F2F3340194A0FB0254D6
:10046000C1F3130141F48011C3F3130343F4801368
:1004700001FB024400FB034E840A970A44EA8154BC
:1004800047EA8357A4FB076802958D0A05FB078599
:100490004FEA932C04FB0C542705029D4FEA0658A3
:1004A00047EA1637B5EB08056EEB070C870E920E80
:1004B00047EA811742EA8312A7FB0201B6EB0B0160
:1004C00064EB00042B0D43EA0C335E1844EB1C5024
:1004D000DA465146E7FB0201C5F313044FEA0B333A
:1004E00043EA14534FEA0432019C43EA0603A4F1A1
:1004F0000C040294009CCDE900B400F0FDF803B0B8
:10050000BDE8F08F00200146F9E7C10F80EAE070F6
:100510000844CA079623002100F0B1B80EB5C10FF8
:1005200080EAE0700844CA07002140F233438DE8B6
:100530000E000A460B4600F0DFF803B000BD00F0E5
:10054000004230F000400AD0C10D01F56071C0F3E7
:10055000160042EA0151C2084007114370470020CB
:100560000146704701F0004330B421F0004150EAE9
:10057000010206D00A0DA2F56072C1F31301002A30
:1005800002DC30BC00207047440F44EAC104C100C3
:10059000E01830BC00EBC25000F068B830B50B4634
:1005A000014600202022012409E021FA02F59D42A3
:1005B00005D303FA02F5491B04FA02F52844151E77
:1005C000A2F10102F1DC30BD2DE9F05F054600200B
:1005D00092469B4688460646814640241BE02846B4
:1005E00041464746224600F08DF953465A46C01A06
:1005F000914110D311461846224600F016F82D1AE4
:1006000067EB01084F4622460120002100F00DF85B
:1006100017EB00094E41201EA4F10104DFDC48461F
:1006200031462A464346BDE8F09F202A04DB203AA3
:1006300000FA02F1002070479140C2F1200320FA35
:1006400003F3194390407047202A06DBCB17203A6A
:1006500041FA02F043EAE07306E041FA02F3D040C7
:10066000C2F1200291400843194670470029A8BFF3
:100670007047401C490008BF20F00100704710B4CB
:10068000B0FA80FC00FA0CF050EA010404BF10BC80
:10069000704749B1CCF1200421FA04F411FA0CF1AD
:1006A00018BF012121430843A3EB0C01CB1D4FEAE6
:1006B00000614FEA102042BF002010BC704700EBE1
:1006C000C35010440029A4BF10BC7047401C49000F
:1006D00008BF20F0010010BC704710B5141E73F164
:1006E000000408DA401C41F1000192185B411A43F2
:1006F00001D120F0010010BD2DE9F04D92469B463E
:1007000011B1B1FA81F202E0B0FA80F220329046E3
:10071000FFF78BFF04460F4640EA0A0041EA0B014F
:1007200053465A46084313D0114653EA010019D0E4
:10073000C8F14002504600F0E5F805460E46504626
:1007400059464246FFF771FF084305D0012004E0F7
:1007500020463946BDE8F08D0020054346EAE076A4
:100760002C4337430A986305E40AA0EB08000022F3
:10077000FD0A44EA47540A3002D500200146E9E761
:10078000010510196941DDE9084500196941BDE815
:10079000F04DA2E72DE9F04D81EA030404F0004B8F
:1007A00021F0004514464FF0000A23F0004150EAC2
:1007B000050220D054EA01021DD0C5F30A570246B3
:1007C000C5F31303C1F31300C1F30A5640F48015B7
:1007D00043F48013A7EB0608101BD64608F2FD3839
:1007E00073EB050002D308F1010801E092185B41A8
:1007F000B8F1000F03DA00200146BDE8F08D0020BB
:100800004FF48011064684460EE0171B73EB050774
:1008100005D3121B63EB050306434CEA010C4908A0
:100820004FEA300092185B4150EA0107EDD152EADD
:10083000030012D082EA040083EA0501084305D0D0
:10084000101BAB4106D20122002306E000224FF02C
:10085000004302E06FF0010253101AEB06004CEB6C
:10086000085110EB0A0041EB0B01BDE8F04DFFF71A
:1008700034BFC1F30A52C1F3130140F2FF3341F414
:1008800080119A4202DA00200146704740F2334359
:100890009A42A2F2334202DC524200F033B8FFF730
:1008A000C4BE000030B5041E71F1000404DB4FF03B
:1008B0000044404264EB0101141E73F1000405DBA7
:1008C0001C464FF00043524263EB0403994208BFB9
:1008D000904230BD1CB5094800900948019005467A
:1008E000009C06E0E06840F0010394E807009847A8
:1008F0001034AC42F6D3FFF7FDFB0000744C000847
:10090000944C0008202A04DB203A21FA02F000214E
:10091000704721FA02F3D040C2F12002914008430F
:1009200019467047420005D0C0F3C7525242914267
:1009300001DC0020704700EBC1507047FEE700006B
:1009400080B58C4603464FF0000E01608280811D09
:1009500060460122A3F806E1BDE8804002F008B835
:1009600070B5A0B0259C3B2C02D9012020B070BDF1
:100970000546DDF890C0201DFE268DF800608DF83C
:100980000100180A6E468DF802108DF803208DF8CC
:100990000500B01D614622468DF80430FFF7C2FB0A
:1009A000A019FF2181712868E11DCAB231464FF0BC
:1009B000FF3302F035F820B070BD00002DE9F0479C
:1009C00096B0B0F80611841D625CFF2A04D0013194
:1009D00001F07F0134E000BF2278FE2A2FD10131DF
:1009E0008AB20A2A4FF000012AD3224412F8012CBD
:1009F000FF2A25D1C1790D2921D1C168B0F80A801B
:100A0000056990F814A081460846FFF798FD064650
:100A100028460F46FFF793FDCDE9006706AE0D4669
:100A200002900CA2304640214346CDF810A0039519
:100A300003F00AFB0CA0314603F0F6FA4846002109
:100A4000A0F8061100682144012201F091FF16B0C0
:100A5000BDE8F087253034582C252E32662C252E03
:100A600032662C25640A00002573000070470000E0
:100A7000EFF3108072B600BFFEE70000014690F869
:100A80002100022816D10868D1E90FC3026822F0BC
:100A90000E020260026822F001020260012000FAE8
:100AA00003F2CCF8042081F821000020002281F814
:100AB00020207047042088630120002281F8202034
:100AC0007047000090F82110022923D1026840F2FB
:100AD000040C1168C4F2020C21F00E0111601368BD
:100AE0002F21C4F202018A4223F00103136015DDB5
:100AF0003023C4F202039A421CD04423C4F20203FE
:100B00009A421BD05823C4F202039A421CD14FF4DC
:100B1000803321E004218163012070470823C4F25F
:100B200002039A420ED01C23C4F202039A420BD154
:100B3000102311E04FF480730EE000BF4FF4805398
:100B40000AE000BF012307E00CF168014FF0807359
:100B50008A4208BF4FF480130121CCF8003080F89E
:100B60002110416B0022002980F8202004BF0020C2
:100B7000704780B58847002080BD0000B0B50446AE
:100B800000F01EF9054640F21C00C2F20000007899
:100B9000611C18BF044400BF00F012F9401BA042C2
:100BA000FAD3B0BD2DE9F04F82B00E68002E00F0F0
:100BB000FD8041F20042C4F20102042340F2004EE3
:100BC000904208BF03234FF6FF7CC4F2010E00934E
:100BD00000240123C1F2100C4FF0000A4FF000096D
:100BE0004BE000BF41F20002C4F20102009F9042BC
:100BF00008BF022704F00C030F229A402BEA0202DE
:100C000007FA03F34FEA9A051A4346F825204E687F
:100C100040F20C45F202DEF8082054BF22EA080236
:100C200042EA0802C4F20105CEF808202A68B3029D
:100C300054BF22EA080242EA08022A60B303DEF83F
:100C4000042054BF22EA080242EA0802F303CEF865
:100C50000420DEF800204FF0010354BF22EA08020E
:100C600042EA0802CEF800200E680AF1010A36FABC
:100C70000AF204F1040400F0998003FA0AFB16EA70
:100C80000B08F1D04E68664512DC122E56D8DFE80C
:100C900006F0350B4D495555555555555555555536
:100CA00055555545510000BFD1F80C9046E000BFA6
:100CB0004FF6FF72C1F2210296420FDC0022C1F210
:100CC000110296421AD00022C1F21202964215D0A9
:100CD0000022C1F22102964210D02FE00022C1F280
:100CE000220296420AD00022C1F23102964205D079
:100CF0000022C1F23202964220D100BF8A684AB176
:100D0000012A14BFC0F814B0C0F810B04FF00809A1
:100D100014E000BF4FF0040910E000BFCA6802F100
:100D200004090BE04FF0000908E000BFCA6802F1B7
:100D3000080903E0CA6802F10C0900BF0246264612
:100D4000B8F5807F24BF0432203E17680F25B540D8
:100D500027EA050509FA06F635431560CA79D20671
:100D60007FF582AF41F21803C4F202031A68AEF5B0
:100D70007E7642F001021A601A6802F001020192C6
:100D8000019A2AF0030256F802B040F60002C4F2BB
:100D90000102904208D040F60042C4F201029042A3
:100DA0007FF420AF012725E7002723E702B0BDE845
:100DB000F08F0000002A08BF09040161704700009D
:100DC00040F20830C2F2000000687047002804BFFB
:100DD00001207047F0B581B0044690F83D0028B975
:100DE000002084F83C00204600F0F8FA242084F823
:100DF0003D002068016821F001010160016841F4B3
:100E000000410160016821F40041016000F00EFD25
:100E1000636848F2A16CC0F2010C40F60011C0F208
:100E20003D0163453CBF48F28041C0F21E0188424B
:100E300002D2012001B0F0BD4DF68361C4F21B3136
:100E4000A0FB01122168970CD1F804E04FF49676CC
:100E50002EF03F0545EA92454D60774348F6381637
:100E60000D6AC0F24106A7FB067625F03F076345F1
:100E700038BF960C721C3A430A62CA6948F2A066EF
:100E80004CF6FF77C0F20106B34222EA07020BD804
:100E900001385B00B0FBF3F001306FF31F30042822
:100EA00098BF04201BE000BFA768013857B119277D
:100EB0007B43B0FBF3F001306FF31F3070B100F5EE
:100EC000804007E003EB4303B0FBF3F001306FF326
:100ED0001F3018B100F5004001E000BF01201043B1
:100EE000C8610868D4E9072320F0C0001043184304
:100EF0000860886848F2FF3204F10C0790438CCFF9
:100F000018431043A6698860C86820F0FF00384382
:100F10003043C860086840F00100086000202021CC
:100F2000206484F83D10206384F83E0001B0F0BDD9
:100F30002DE9F04F85B004460020994616460F462D
:100F40000490FFF73DFF94F83D10202927D1054676
:100F5000206800BF816989071CD5FFF731FF411B5D
:100F600020681A29F6D381698907F3D5002020214A
:100F7000206384F83D1084F83E00206C04F13C0AA4
:100F800040F020002064022000218AF8001005B003
:100F9000BDE8F08FA2461AF83C1F012904D10220B7
:100FA00005B0BDE8F08F00BF01228AF80020036879
:100FB000DDE90F180E9ADB0703D1036843F0010344
:100FC0000360036823F400630360222084F83D007B
:100FD000402084F83E000020206462626185608DBC
:100FE000394620850020CFF6FF70E0622046324669
:100FF0004B46CDE9008501F0E1FD18B1012005B0B7
:10100000BDE8F08F208D022826D001280ED00028C0
:1010100038D10020039020684169039181690391D0
:101020000399016841F40071016037E020680168AC
:1010300021F480610160EFF3108072B6002003900C
:10104000206841690391816903910399016841F422
:101050000071016062B621E02068016841F400611E
:101060000160EFF3108072B60020039020684169A0
:101070000391816903910399016821F48061016002
:1010800062B60BE02068016841F4806101600021D4
:10109000039141690391806903900398208D002892
:1010A00000F0CE80042740F224094BF2895BC0F2A5
:1010B0000107C2F20009C1F2F84B23260EE000BF7F
:1010C00010690870606A218D01306062481E2085B9
:1010D000618D01396185010400F0B28080B203287E
:1010E0000CD802282CD001284AD1204641462A4655
:1010F00002F002F8002800F09F807FE7204641467A
:101100002A4601F0F9FF00287FF478AF2068616A71
:1011100000690870606A2268411C208D6162013894
:101120002085638D013B638553695B07D3D580B20E
:101130000328C5D1106820F480601060C0E700BFAC
:101140002046394600224346009501F083FE0028E0
:101150007FF454AFEFF3108072B62068616A0268C2
:1011600042F40072026000690870606A218D0130EB
:101170006062481E2085608D0138608562B65BE044
:101180002046394600224346009501F063FE0028C0
:101190007FF434AF2068016821F480610160EFF3CF
:1011A000108072B62068616A00690870606A218DDB
:1011B0000130013960622185618D01396185D9F87D
:1011C0000010C908A1FB0B12110A71430491049984
:1011D00001390491049900293ED021684A695207D7
:1011E0001AD40499013904910499A9B321684A6970
:1011F000520711D4049901390491049961B321680B
:101200004A69520708D4049901390491049919B321
:1012100021684A695207DAD50A6842F400720A6006
:1012200009690170606A218D01306062481E208565
:10123000608D0138608562B62068616A006940E7A8
:10124000202084F83D00002084F83E0000218AF828
:10125000001005B0BDE8F08F00202021206384F845
:101260003D1084F83E00206C40F02000206462B6FF
:10127000012000218AF8001005B0BDE8F08F0000C1
:101280002DE9F04383B0994616460F460446FFF712
:1012900097FD94F83D10202924D10546206800BF11
:1012A000816989071AD5FFF78BFD411B20681A2930
:1012B000F6D381698907F3D500202021206384F8C3
:1012C0003D1084F83E00216C41F02001216484F837
:1012D0003C00022003B0BDE8F08300BF94F83C104E
:1012E000012903D1022003B0BDE8F083012284F874
:1012F0003C200368DDE90B180A9ADB0703D1036879
:1013000043F001030360036823F4006303602120BA
:1013100084F83D00402084F83E0000202064626292
:101320006185608D394620850020CFF6FF70E06230
:10133000204632464B46CDE9008501F0C9FC18B184
:10134000012003B0BDE8F083208D98B920464146C6
:101350002A4601F021FD88B3206C0428F0D12068D2
:10136000016841F400710160012003B0BDE8F08321
:101370000004EBD0204641462A4601F005FF002834
:10138000EAD1616A2268084610F8013B1361238D97
:101390006062581E2085678D013F678557697F070A
:1013A000E6D50704E4D048781061881C6062981E76
:1013B0002085618D01396185DAE700BF2068016809
:1013C00041F400710160202084F83D00002084F881
:1013D0003E0084F83C0003B0BDE8F08310B586B051
:1013E000006845F60001C4F2000188424FF0000198
:1013F000CDE90411CDE9021128D045F20041C4F233
:101400000001884246D141F21804C4F20204206867
:1014100002A940F008002060206800F00800019058
:101420000198C0200290122003900320059040F6FE
:101430000040C4F20100FFF7B5FB606840F4001003
:101440006060606800F4001022E000BF41F2180400
:10145000C4F20204206802A940F00800206020685D
:1014600000F00800019001984FF4406002901220B3
:1014700003900320059040F60040C4F20100FFF7FE
:1014800091FB606840F480006060606800F4800058
:101490000190019806B010BD002804BF01207047DC
:1014A00070B504460068D4E901124CF6CC430360E1
:1014B00045F25553036041608260FFF781FC21686B
:1014C000CA68920712D0054641F23D3603E000BFDC
:1014D000C86880070AD0FFF773FC401B2168B04240
:1014E000F6D3C8688007F3D0032070BD4AF6AA205F
:1014F0000860002070BD000001684AF6AA220020A2
:101500000A60704740F21C0040F20831C2F200004D
:10151000C2F2000100780A681044086070470000B9
:1015200080B542F20000C4F20200016841F01001EF
:101530000160032000F08CF80F2000F005F800F0A7
:1015400027F8002080BD000070B540F21C06C2F2F2
:10155000000640F224013278C2F200014FF47A739F
:101560000968B3FBF2F20446B1FBF2F1084600F061
:1015700085FB0F2C4FF0010508D838B94FF0FF302C
:1015800021460022002500F037F87460284670BD1F
:1015900082B041F21800C4F202000168022241F058
:1015A00001010160016801F00101019101994168A7
:1015B00041F080514160406800F0805000900098F8
:1015C0000420C4F20100016862F31A61016002B0F4
:1015D00070470000002848BF704700F01F0101223B
:1015E00002FA01F11C2202EAD0004EF20012CEF201
:1015F000000281507047000010B54EF60C5CCEF230
:10160000000CDCF80030C3F3022E8EF00704042C2B
:1016100028BF0424BEF103034FF0FF3E0EFA04F48A
:1016200038BF0023A14399400EFA03F39A431143B4
:1016300000F00F0200F160430901043A03F564432E
:101640006244002848BF02F10C03197010BD00006D
:101650004EF60C51CEF200010A684FF6FF031A4015
:1016600060F30A2242F0806040F0FD70086070472D
:10167000002804BF012070472DE9F04381B042F2F9
:101680000008C4F202080446D8F800000D4600F035
:10169000070088420CD2D8F8000020F00700284349
:1016A000C8F80000D8F8000000F00700A8426CD18C
:1016B000206841F204098107C4F2020917D54107E5
:1016C00005D5D9F8001041F4E061C9F80010010710
:1016D00005D5D9F8001041F46051C9F80010D9F8C7
:1016E0000010A26821F0F0011143C9F80010C007F2
:1016F00042D1D8F8000000F00700A8420CD9D8F871
:10170000000020F007002843C8F80000D8F80000C7
:1017100000F00700A84238D12068410707D5D9F862
:101720000010E26821F4E0611143C9F800100007DD
:1017300008D5D9F80000216920F4605040EAC100C2
:10174000C9F80000D9F8002002F00C00082841F286
:101750000020C0F27A004DD144F66243C2F38341C7
:10176000C0F60003595CD20338D440F60010C0F232
:101770003D0048433EE000BF606859F8041C022861
:1017800008D0012826D1890306D4012001B0BDE884
:10179000F08300BF8901F8D5D9F8001021F00301CA
:1017A0000843C9F80000FFF70BFB064641F28837F3
:1017B000D9F80000616800F00C00B0EB810F98D000
:1017C000FFF7FEFA801BB842F2D9032001B0BDE852
:1017D000F08300BF8907D8D5DEE700BFD9F8002025
:1017E00044F66043C2F34042C0F600039A5C4843AB
:1017F000B0FBF2F0D9F8001044F64842C1F30311EF
:10180000C0F60002515C40F2240220FA01F140F2DD
:101810002000C2F200000068C2F200021160FFF76F
:1018200093FE002001B0BDE8F083000040F22400E8
:1018300041F20401C2F20000C4F20201006809682A
:1018400044F65842C1F30221C0F60002515CC84080
:101850007047000040F2240041F20401C2F200008F
:10186000C4F202010068096844F65842C1F3C2217B
:10187000C0F60002515CC84070470000002804BF59
:10188000012070472DE9F04182B00446007841F212
:101890000006C007C4F202060CD0706800F00C000D
:1018A000042840F081803068800303D560680028F8
:1018B00000F04681207880071BD5706810F00C0F6F
:1018C00009D0706800F00C00082840F0878070682C
:1018D000C00300F183803068800703D520690128A8
:1018E00040F02E813068616920F0F80040EAC100C4
:1018F00030602078000713D4207840072CD4E569A5
:10190000002D00F01881706800F00C00082840F0ED
:10191000A780012D40F00481012002B0BDE8F081D4
:10192000A069002800F084800020C4F24220012138
:10193000C0F88014FFF744FA054600BF706A8007BC
:1019400000F1B280FFF73CFA401B0228F6D90320D1
:1019500002B0BDE8F08100BFF0695FEAC00808D4BA
:10196000F06940F08050F061F06900F08050009024
:10197000009847F20007C4F200073868C00549D450
:10198000386840F480703860FFF71AFA054600BFE7
:101990003868C0053ED4FFF713FA401B6428F7D916
:1019A000032002B0BDE8F081706800F00C00082848
:1019B00003D17068C0033FF576AF616830680029D5
:1019C00000F00C81B1F5A02F00F00081B1F5803F4F
:1019D00040F01A8140F480301CE100BF20690028EB
:1019E00040F20000C4F2422000F088800121016032
:1019F000FFF7E6F9054600BF306880073FF572AF94
:101A0000FFF7DEF9401B0228F6D9032002B0BDE83B
:101A1000F08100BFE168306A002900F09D8005294F
:101A200000F09280012940F0AF8040F00100B1E069
:101A30000020C4F242200021C0F88014FFF7C0F952
:101A4000054600BF706A80077FF556AFFFF7B8F90B
:101A5000401B0228F6D9032002B0BDE8F08100BF88
:101A60000027C4F2422700203866FFF7A9F9022DAB
:101A700005460DD13068800140F1DE80FFF7A0F906
:101A8000401B02284FF00300F4D902B0BDE8F081FA
:101A9000306880014FD5FFF793F9401B02284FF0C3
:101AA0000300F5D9F1E700BF40F22400C2F20000C4
:101AB000006844F6D351C1F26201A0FB0101480A5B
:101AC000019000BF00BF0198411E002801913FF422
:101AD00013AF00BF0198411E002801913FF40CAFE5
:101AE00000BF0198411E002801913FF405AF00BFDF
:101AF0000198411E00280191E4D1FDE6002101601A
:101B0000FFF75EF9054600BF306880077FF5F1AE4C
:101B1000FFF756F9401B02284FF00300F4D9B4E751
:101B20007068216A00F480328A4209D1616A00F447
:101B30007010884204D1002002B0BDE8F08100BFDF
:101B4000012002B0BDE8F08140F004003062306A4C
:101B500040F001001EE000BF20F001003062306A5A
:101B600020F004003062FFF72BF9054641F2883778
:101B7000306A800720D5FFF723F9401BB8424FF0A9
:101B80000300F5D981E700BF20F001003062306A20
:101B900020F004003062FFF713F9054641F2883760
:101BA000306A800708D4FFF70BF9401BB842F7D919
:101BB000032002B0BDE8F081B8F1000F3FF59FAE01
:101BC000F06920F08050F06199E600BF40F4802079
:101BD0003060306840F480301CE000BF20F480307A
:101BE0003060306820F480203060FFF7E9F8054667
:101BF000306880037FF55EAEFFF7E2F8401B642893
:101C00004FF00300F4D940E720F4803030603068B2
:101C100020F480203060FFF7D3F805463068800359
:101C20003FF548AEFFF7CCF8401B6428F6D90320F7
:101C300002B0BDE8F08100BF206AB0F5803F05D159
:101C40007168A26821F40031114371607168626AA1
:101C500021F4741111430843706001203866FFF7C6
:101C6000AFF80446306880013FF565AFFFF7A8F88C
:101C7000001B02284FF00300F4D906E7411E0020A4
:101C8000B0EB116F1CBF012070474EF21002CEF274
:101C9000000251604EF62351CEF20001F0230B708A
:101CA0000721906011607047704700007047000086
:101CB00090F83C20012A4FF0020236D010B580F88F
:101CC0003D200268D2F804E0D2F808C00C682EF07B
:101CD0007003234340F2FF74C4F20004A242536035
:101CE0000ADCB2F1804F13D040F20043C4F200038B
:101CF0009A420DD011E000BF42F60043C4F2010346
:101D00009A4205D040F60003C4F200039A4204D17F
:101D100049682CF08003194391600121002280F86A
:101D20003D1080F83C20BDE8104010467047000090
:101D3000002804BF0120704710B590F83D1031B95C
:101D4000002180F83C10044600F070F82046022183
:101D500080F83D10016840F2FF740B68C4F2000483
:101D600042F6004CA142C4F2010C15DCB1F1804FE7
:101D70001AD040F20042C4F20002914214D0A142B3
:101D800018DCB1F1804F1DD040F20042C4F20002D5
:101D9000914217D01AE000BF614505D040F600021D
:101DA000C4F200029142EAD1826823F07003134327
:101DB000A142E6DD614505D040F60002C4F2000212
:101DC000914203D1026923F440731343846923F0E1
:101DD0008002D0F804E0C368224361450A60CB6208
:101DE000C1F828E002D14269CCF8302001224A61D2
:101DF0000B69DB0703D00B6923F001030B6180F84B
:101E0000462080F83E2080F83F2080F8402080F86F
:101E1000412080F8422080F8432080F8442080F858
:101E2000452080F83D20002010BD00000068B0F182
:101E3000804F18BF704780B582B041F21C00C4F2D9
:101E400002000168002241F00101016000680021E8
:101E500000F00100019001981C20FFF7CDFB1C2031
:101E600002B0BDE88040FFF7B5BB000090F83D1020
:101E700001291CBF01207047022180F83D10006835
:101E800040F2FF72C168C4F20002904241F00101C9
:101E9000C16009DCB0F1804F12D040F20041C4F2C1
:101EA000000188420CD012E042F60041C4F2010168
:101EB000884205D040F60001C4F20001884206D1F4
:101EC000816801F00701062904BF002070470168FE
:101ED00041F00101016000207047000090F83C20B3
:101EE000012A4FF002026CD080B580F83D20D0F876
:101EF00000C04FF67772DCF8083023EA0202CCF813
:101F000008200B684F2B29DC1F2B45DD202B46D0EA
:101F1000302B44D0402B40F0AF80D1F804E0C968AA
:101F2000DCF82030DCF8202022F00102CCF8202060
:101F3000DCF8182022F0F00242EA011123F00A0234
:101F400042EA0E02CCF81810CCF82020DCF8081079
:101F500041F0470121F0300128E000BF6F2B33DD55
:101F6000B3F5005F74D0B3F5805F21D0702B40F0E3
:101F70008380D1E901E3C968DCF8082043EA0E0355
:101F800022F47F4243EA01211143CCF80810DCF827
:101F9000081041F0770109E00BB1102B6CD1DCF88F
:101FA000081021F07001194341F00701CCF8081026
:101FB0000022012180F83D10002180F83C10BDE88E
:101FC00080401046704700BF502B21D0602B53D16A
:101FD000D1F804E0C968DCF82030DCF8202022F0D9
:101FE0001002CCF82020DCF8182022F4704242EADB
:101FF000013123F0A00242EA0E12CCF81810CCF8FE
:102000002020DCF8081041F0670121F01001CDE735
:10201000D1F804E0C968DCF82030DCF8202022F098
:102020000102CCF82020DCF8182022F0F00242EA6D
:10203000011123F00A0242EA0E02CCF81810CCF883
:102040002020DCF8081041F0570121F02001ADE715
:10205000D1E901E3C968DCF8082043EA0E0322F461
:102060007F4243EA01211143CCF80810DCF8081044
:1020700041F480419AE700BF01229AE770470000CF
:1020800070B504460068C5680669B10716D515F035
:10209000020113D06FF002010161012121778069F3
:1020A000800703D02046FFF7E9FF05E0204600F057
:1020B0008FF8204600F08EF800202077700719D5A1
:1020C00015F0040016D020686FF0040101610221B0
:1020D0002177806910F4407F04D02046FFF7CEFFBF
:1020E00006E000BF204600F073F8204600F072F8CA
:1020F00000202077300717D515F0080014D020688D
:102100006FF00801016104212177C069800703D0C5
:102110002046FFF7B3FF05E0204600F059F82046BF
:1021200000F058F800202077F00619D515F01000BF
:1021300016D020686FF01001016108212177C06975
:1021400010F4407F04D02046FFF798FF06E000BF60
:10215000204600F03DF8204600F03CF800202077B3
:10216000F00718BF15F0010002D1300609D412E0C3
:1021700020686FF001010161204600F02DF8300663
:1021800009D515F0800006D020686FF0800101614C
:102190002046FFF789FD700609D515F0400006D0EE
:1021A00020686FF040010161204600F045F8B0065C
:1021B00058BF70BD15F0200008D021686FF02002D4
:1021C00020460A61BDE87040FFF770BD70BD000099
:1021D000704700007047000040F22C21C2F200015D
:1021E000884218BF704710B586B040F23004C2F282
:1021F0000004A0780130C1B20229A07018D1D4E93E
:1022000002012278CDE9030140F270008DF814201C
:102210004FF0090C0DF10C0EC2F20000802180225B
:1022200042F20303CDE900ECFEF79AFB0020A07018
:1022300006B0BDE8104070477047000070470000CE
:1022400070470000B0B582B001680A68CC684B697D
:1022500002F02F05202D04F0200505D125B102B094
:10226000BDE8B04001F050BB5FEA027C1EBF03F046
:10227000010E04F4907313EB0E0341D1036BD506EA
:1022800018D5012B16D114F0100313D0002201929F
:102290000A6801924A680192019A496949064BD439
:1022A000818DC28DC38D002B18BF914240F0F48107
:1022B00002B0B0BD13062DD514F080032AD090F8DB
:1022C0004120212AF4D18268B2F5805F03D10269EE
:1022D000002A00F06782026A531C036212784A6087
:1022E000C28C013A1304C284E2D1C86820F0800095
:1022F000C860C86840F04000C86002B0B0BD00BF10
:10230000D30718BF14F4807340F0D080530700F156
:10231000D380D8E05206CBD514F04002C8D0CA68AA
:1023200022F04002CA60202180F8411002B0BDE8CE
:10233000B04000F03FBC00BFC16B0A68526893B266
:10234000002BB5D0858DAB42B2D2C28589692029D8
:1023500000F0A180016851E8031F026821F4807138
:1023600042E80313DBB1016851E8031F026821F45E
:10237000807142E8031393B1016851E8031F0268BA
:1023800021F4807142E803134BB1016851E8031F47
:10239000026821F4807142E80313002BDAD101684E
:1023A00051E8051F026821F0010142E80513C3B39B
:1023B000016851E8051F026821F0010142E8051398
:1023C0007BB3016851E8051F026821F0010142E872
:1023D000051333B3016851E8051F026821F00101BC
:1023E00042E80513002BDAD11BE000BF016851E879
:1023F000051F026821F0400142E80513DBB10168C6
:1024000051E8051F026821F0400142E8051393B12D
:10241000016851E8051F026821F0400142E80513F8
:102420004BB1016851E8051F026821F0400142E804
:102430000513002BDAD1202180F84210002101631E
:10244000016851E8031F026821F0100142E80313FC
:10245000DBB1016851E8031F026821F0100142E876
:10246000031393B1016851E8031F026821F01001C2
:1024700042E803134BB1016851E8031F026821F0E1
:10248000100142E80313002BDAD1C16B0446084661
:10249000FEF7F4FA204602214163818DC28D891A2C
:1024A00089B202B0BDE8B040FFF7C8BE436C43F04C
:1024B00001034364530706D5BEF1000F03D0436CFC
:1024C00043F002034364930706D5BEF1000F03D027
:1024D000436C43F004034364BCF1000F06D55EEA8D
:1024E000050303D0436C43F008034364436C002BA3
:1024F0003FF4DEAE920605D525B1044601F004FA9C
:10250000216820464969426C01F0400102F008024E
:10251000891800F0B98000BF016851E8031F026804
:1025200021F4907142E80313BBB3016851E8031F23
:10253000026821F4907142E8031373B3016851E813
:10254000031F026821F4907142E803132BB3016862
:1025500051E8031F026821F4907142E80313002B35
:10256000DAD11AE0016851E8051F026821F0010183
:1025700042E80513DBB1016851E8051F026821F04C
:10258000010142E8051393B1016851E8051F026893
:1025900021F0010142E805134BB1016851E8051F24
:1025A000026821F0010142E80513002BDAD1016B2A
:1025B000012924D1016851E8031F026821F01001AC
:1025C00042E80313DBB1016851E8031F026821F000
:1025D000100142E8031393B1016851E8031F026838
:1025E00021F0100142E803134BB1016851E8031FC9
:1025F000026821F0100142E80313002BDAD12021F8
:1026000080F842100021016301684969490640F1E0
:10261000C380016851E8051F026821F0400142E8CB
:102620000513DBB1016851E8051F026821F0400184
:1026300042E8051393B1016851E8051F026821F0D3
:10264000400142E805134BB1016851E8051F0268DB
:1026500021F0400142E80513002BDAD1C16B0029BB
:1026600000F09A8043F6FD02C0F6000204460846D8
:102670004A63FEF727FA00283FF41AAEE06B416B7D
:1026800002B0BDE8B04008470446FFF7D9FD00207E
:10269000606402B0B0BD00BF891A00BF026852E892
:1026A000032F036822F4907243E80325BDB3026848
:1026B00052E8032F036822F4907243E8032575B3B0
:1026C000026852E8032F036822F4907243E803255E
:1026D0002DB3026852E8032F036822F4907243E896
:1026E0000325002DDAD11AE0026852E8052F0368AD
:1026F00022F0010243E80525DDB1026852E8052F0A
:10270000036822F0010243E8052595B1026852E80A
:10271000052F036822F0010243E805254DB1026848
:1027200052E8052F036822F0010243E80525002D39
:10273000DAD1202280F8422000220263026852E8A7
:10274000032F036822F0100243E80325DDB102687D
:1027500052E8032F036822F0100243E8032595B1E5
:10276000026852E8032F036822F0100243E80325B1
:102770004DB1026852E8032F036822F0100243E8CB
:102780000325002DDAD1022289B2426302B0BDE8EE
:10279000B040FFF753BD00BF02B0BDE8B040FFF747
:1027A0004FBD00BF026A32F8023B6FF35F234B60FC
:1027B000026295E5002804BF0120704710B5044669
:1027C00090F8410028B9002084F84000204600F02D
:1027D00063F8242084F841002068D4E90212C36819
:1027E00023F40053C360036923F440531A43026186
:1027F000D4E904231143C268194341F20C639A439C
:102800001143C1604169A26921F44071114343F64B
:102810000002C4F201029042416103D0FFF706F8C2
:1028200002E000BFFFF716F8D4E90023192148435E
:102830009900B0FBF1F048F21F5CC5F2EB1CA0FB65
:102840000C314FF69C734909C0F6FF7301FB03007E
:10285000322303EB0010A0FB0C03F02000EA53101E
:1028600000EB0110C3F3431108449060106920216C
:1028700020F490401061506920F02A005061D06827
:1028800040F40050D0600020606484F8411084F867
:102890004210606310BD0000F0B585B0006844F2DE
:1028A0000041C4F2000188424FF00001CDE903115C
:1028B000CDE9011122D043F60001C4F201018842A2
:1028C00053D141F21800C4F202000168252441F4FA
:1028D0008041016001684FF4806701F480410091FC
:1028E0000099016841F004010160006800F00400F3
:1028F000009000984FF4007019E000BF41F21800FA
:10290000C4F202004168262441F40031416041686C
:10291000082701F4003100910099016841F0040199
:102920000160006800F0040000900098042001900D
:10293000022040F6000502900320C4F2010501AE1A
:10294000049028463146FEF72DF90020CDE902001B
:10295000284631460197FEF725F92046002100223E
:10296000FEF74AFE2046FEF735FE05B0F0BD00003A
:1029700090F84230202B07D100294FF0010318BFF7
:10298000002A05D11846704702231846704700BF39
:1029900000230363816222218285C285436480F81B
:1029A00042100169006819B1C16841F48071C160C9
:1029B000416941F001014161C16841F02001C160FC
:1029C0001846704770B50446006843F60001C4F22B
:1029D0000101884213D140F2BC2540F20436C2F214
:1029E0000005C2F200062846314601224FF0FF33AF
:1029F00000F016F8284631460122FFF7B9FF40F2F1
:102A00007000C2F200000068A04218BF70BD40F222
:102A10007000C2F20000BDE87040FDF7CFBF0000BB
:102A20002DE9F04381B0044690F84100202809D1F7
:102A300000294FF0010018BF002A07D101B0BDE8FE
:102A4000F08300BF022001B0BDE8F0830020606485
:102A500021201D460E4684F841001746FEF7B0F9C6
:102A6000A784E784A1688146B1F5805F02D120691F
:102A700000285DD037460020E28C2168002A5DD016
:102A80006A1C24D0002D4AD0804600BF086800068A
:102A900008D4FEF795F9A0EB0900A8427AD821687E
:102AA000C868F3E717B117F8010B04E038F8020B18
:102AB00000276FF35F204860E08C0138E084E08CF1
:102AC0000028E3D13AE000BF0A68120609D40A6878
:102AD000120606D40A6812065CBF0A685FEA026240
:102AE000F2D51FB117F8012B05E000BF30F8022B1B
:102AF00000276FF35F224A60E28C013AE284E28CA5
:102B0000002AE4D11AE000BF30F8022B00276FF34F
:102B10005F224A60E28C013AE284E28C72B10A6878
:102B2000120635D5002FEFD017F8012BF1E700BFC3
:102B300000273046E28C2168002AA1D108684006AF
:102B40001ED42DB3681C14D1086840062AD4086826
:102B5000400627D40868400624D4086840064FF091
:102B60000000F1D50DE000BF2068C1680068400694
:102B700018D4FEF725F9A0EB0900A842F4D909E022
:102B80000020202184F8411001B0BDE8F08300BF8F
:102B9000FEF716F90320202184F8411001B0BDE8AA
:102BA000F08300BF0020202184F8411001B0BDE86F
:102BB000F083000070470000FEE700002DE9F047B9
:102BC00082B0044600689A460B9D0A9E03689146AF
:102BD00043F48062026002680F4642F48071016033
:102BE00020464FF0011100223346009500F032F9E3
:102BF00050B120680068C00544BF4FF400702064E5
:102C0000032002B0BDE8F08740F202082068C0F25D
:102C1000010807F0FE0707612046414632462B4671
:102C200000F0FEF920B1012002B0BDE8F08700BF3E
:102C30000020019020682A4641690191806931464F
:102C400001900198204600F09FFAB0B92068BAF1CF
:102C5000010F09D04FEA19210161204631462A4669
:102C600000F092FA48B920685FFA89F101612046C4
:102C700031462A4600F088FA60B1206C0428D2D18F
:102C80002068016841F400710160012002B0BDE8D4
:102C9000F08700BF206800220168334641F480714C
:102CA000016020464FF00111009500F0D3F8002894
:102CB0009FD147F0010C27682046414632462B46FB
:102CC000C7F810C002B0BDE8F04700F0A9B9000095
:102CD0002DE9F04383B0044600680F4601680A9D61
:102CE0000B9E41F4807199469046016020464FF05A
:102CF000011100222B46009600F0ACF850B120687C
:102D00000068C00544BF4FF400702064032003B086
:102D1000BDE8F083206807F0FE0101610221C0F2E6
:102D2000010120462A46334600F07AF920B10120FD
:102D300003B0BDE8F08300BF002002902068324657
:102D4000416902918069294602900298204600F06C
:102D50001BFA58B1206C0428E9D12068016841F4BD
:102D600000710160012003B0BDE8F0832068B9F173
:102D7000010F0AD04FEA1821016120462946324648
:102D800000F002FA0028E5D120685FFA88F10161BD
:102D9000002003B0BDE8F08370B50368044653F823
:102DA000140F400711D40E46481C29D086BB00BF23
:102DB0001868400527D4FEF703F8236853F8140F6A
:102DC000400737D518684007F2D5002070BD00BF16
:102DD00018684007F9D41868400514D418684007EB
:102DE000F3D4186840050ED418684007EDD418686D
:102DF000400508D4186840074FF0000048BF70BD78
:102E000018684005E4D56FF480601860042012E073
:102E1000154603E053F8140F4007D6D41868400550
:102E2000F1D4FDF7CDFF401B2368B042F2D95869B9
:102E30004007EFD4202000212022216384F83D2088
:102E400084F83E10226C10432064012084F83C106A
:102E500070BD00002DE9F041054600681E4614468D
:102E600001F47F0201338FB242D0DDF81880B2F551
:102E7000803F40F0878040693840C01BB0FA80F046
:102E80004009A04240F0C8804EB924E04069384073
:102E9000C01BB0FA80F04009A04240F0BD80FDF7B1
:102EA0008FFFA0EB08012868B142EFD94169394092
:102EB000C91BB1FA81F14909A142E7D19BE000BFEA
:102EC00040693840C01BB0FA80F04009A0424FF082
:102ED000000040F0A280FDF773FF28684169394087
:102EE000C91BB1FA81F14909A142E9D183E000BFD0
:102EF000B2F5803F24D100BF41693940C91BB1FA06
:102F000081F14909A14240F0878041693940C91BDC
:102F1000B1FA81F14909A14240F07E80416939400E
:102F2000C91BB1FA81F14909A14275D14169394002
:102F3000C91BB1FA81F14909A142DDD06CE000BFA3
:102F400081693940C91BB1FA81F14909A14263D1B4
:102F500081693940C91BB1FA81F14909A1425BD1AC
:102F600081693940C91BB1FA81F14909A14253D1A4
:102F700081693940C91BB1FA81F14909A142DFD009
:102F80004AE000BF80693840C01BB0FA80F04009B9
:102F9000A04241D146B923E080693840C01BB0FA55
:102FA00080F04009A04237D1FDF70AFFA0EB0801ED
:102FB0002868B142F0D981693940C91BB1FA81F161
:102FC0004909A142E8D116E080693840C01BB0FA37
:102FD00080F04009A0424FF0000018BFBDE8F0812A
:102FE000FDF7EEFE286881693940C91BB1FA81F10D
:102FF0004909A142E8D100202021286385F83D102D
:1030000085F83E00296C41F02001296485F83C00D8
:103010000120BDE8F08100BF0020BDE8F081000084
:10302000F0B581B0044600681D4643698FB203EADB
:103030000701B94202D1002001B0F0BD4169164636
:1030400001323CD0490512D47EB300BFFDF7B8FE73
:10305000411B2068B14203D941693940B9422BD1A3
:1030600041693940B942E6D041694905EED5016868
:1030700041F4007101606FF480614161042000211E
:103080002022216384F83D2084F83E10226C1043F6
:10309000206484F83C10012001B0F0BD4169394042
:1030A000B942C8D041694905E1D4FDF789FE2068DD
:1030B00041693940B942F1D02020E0E74169490532
:1030C000D5D441693940B942B5D041694905CED41A
:1030D00041693940B942AED041694905C7D4416917
:1030E0003940B942A7D041694905C0D44169394046
:1030F000B942E3D19FE7000070B504460068154669
:1031000050F8143F5A063DD40E4629B926E000BFB8
:1031100050F8141F490635D40168C90621D4FDF7BB
:103120004FFE411B2068B142F2D941694906EFD4F4
:1031300000202021206384F83D1084F83E00206C9C
:1031400040F0200018E000BFFDF73AFE206850F87C
:10315000141F4906ECD50168490613D40168C90655
:10316000F2D56FF01001016000202021206384F867
:103170003D1084F83E00206C2064002084F83C0060
:10318000012070BD002070BD70B50368044653F87F
:10319000140F000611D40E46481C29D086BB00BF70
:1031A0001868400527D4FDF70BFE236853F8140F69
:1031B000000637D518680006F2D5002070BD00BFA4
:1031C00018680006F9D41868400514D41868000679
:1031D000F3D4186840050ED418680006EDD41868BA
:1031E000400508D4186800064FF0000048BF70BDC5
:1031F00018684005E4D56FF480601860042012E080
:10320000154603E053F8140F0006D6D4186840059D
:10321000F1D4FDF7D5FD401B2368B042F2D95869BF
:103220000006EFD4202000212022216384F83D20D5
:1032300084F83E10226C10432064012084F83C1076
:1032400070BD00002DE9F04786B00020CDE90400F4
:10325000CDE9020041F21800C4F20200016840F614
:10326000004A41F0200101600168C4F2010A01F046
:103270002001019101990168AAF5806541F00401DE
:1032800001600168002201F00401019101990168C7
:10329000102641F0080101600068102100F00800CC
:1032A000019001982846FDF785FD5046182100221F
:1032B0004FF01809FDF77EFD5046202101224FF006
:1032C00020080127FDF776FDCDE9026702AE022452
:1032D00028463146CDE90444FDF764FC50463146AA
:1032E000CDE90297CDE90444FDF75CFC5046314638
:1032F000CDE90287CDE90474FDF754FC06B0BDE8C2
:10330000F087000080B540F2781045F20041C2F22B
:103310000000C4F2000148F2A06200234FF4804C88
:10332000C0F2010280E80E00C0E9033CC0E90533A9
:10333000C0E90733FDF74AFD002808BF80BDBDE89E
:103340008040FDF795BB000080B540F2CC1045F6FB
:103350000001C2F20000C4F2000148F2A0620023A2
:103360004FF4804CC0F2010280E80E00C0E9033C3B
:10337000C0E90533C0E90733FDF728FD002808BF81
:1033800080BDBDE88040FDF773BB000080B540F212
:10339000202043F20001C2F20000C4F20001062224
:1033A00040F20D3380E80E00FEF776F8002808BFE3
:1033B00080BDBDE88040FDF75BBB000080B586B0F6
:1033C00040F22C200021C2F2000041F2873C05911E
:1033D000CDE90311CDE900114FF0804241F61F43C2
:1033E000C0E9021C01618021C0E900238161FEF770
:1033F0009FFC002818BFFDF73BFB4FF48050029064
:1034000040F22C20C2F2000002A9FEF767FD00285E
:1034100018BFFDF72DFB40F22C20C2F200006946D8
:10342000FEF746FC002818BFFDF722FB06B080BD62
:1034300080B540F2742043F60001C2F20000C4F2ED
:10344000010100234FF00C0C4FF4E13280E80E0034
:10345000C0E90333C0E905C3C361FFF7ABF9002836
:1034600008BF80BDBDE88040FDF702BB10B540F24B
:10347000BC2444F20040C2F20004C4F200004FF445
:10348000E13100220C2384E807002046C4E903222E
:10349000C4E90532E261FFF78DF9002818BFFDF796
:1034A000E7FA2068C16841F01001C16010BD00005A
:1034B000FEE700002DE9F04F81B0FDF781FC40F2FE
:1034C000400BC2F2000BDBF820108842C0F0938062
:1034D000481DCBF8200000F0DFF84CF6CD44DBE9C6
:1034E0000407C3F64C54DBF82450DBE9016921469C
:1034F000FCF782FE2946FCF727FEDBF828508246BF
:1035000038462146FCF778FE01462846FCF76EFE59
:1035100000903046494601F045FADBE9020101F02E
:1035200041FA40F6DA74C4F249042146FCF796FEEB
:103530000025C4F234352946FCF75EFEDBF8042092
:10354000DBF80C100746104601F02CFA2146FCF778
:1035500085FE2946FCF750FE06465046FCF7EFFF75
:10356000044638460D46FCF7EAFF46F2A61746F237
:10357000E022C3F6A877C0F645523B46FCF753FF5E
:103580004AF6D21AC9F62B7A47F6E51380468946E1
:10359000C3F6EE73204629465246FCF744FF4246E6
:1035A0004B46FCF799FEFCF7DDFFCBF824000098B2
:1035B000FCF7C5FF044630460D46FCF7C0FF46F257
:1035C000E022C0F645523B46FCF72DFF47F6E513D7
:1035D00006460F46204629465246C3F6EE73FCF7D0
:1035E00022FF02460B4630463946FCF775FEFCF7D3
:1035F000B9FFCBF8280001B0BDE8F08F40F24000E1
:10360000C2F20000406A704740F24000C2F200007F
:10361000806A7047002070472DE9F04184B040F285
:103620000806C2F2000640F2781431787278012759
:10363000B01CC2F200044FF0FF35CDE90007204670
:1036400001230295FDF71CFE6420FDF797FA3178FF
:10365000727840F24008C2F2000820460123CDE90A
:1036600000870295FDF70CFE3178F278301DCDE928
:103670000007204601230295FDF702FE317872799A
:1036800008F10100CDE90007204601230295FDF76E
:10369000F7FD04B0BDE8F0812DE9F04F87B040F2AE
:1036A0000806C2F2000640F278143178B279012798
:1036B0000DF11B00C2F200044FF0FF35CDE9000709
:1036C000204601230295FDF733FC3178F2790DF1A4
:1036D0001A00CDE90007204601230295FDF728FCDA
:1036E0003178327A0DF11900CDE900072046012327
:1036F0000295FDF71DFC3178727A06A8CDE9000726
:10370000204601230295FDF713FC3178B27A0DF1C2
:103710001700CDE90007204601230295FDF708FCBC
:103720003178F27A0DF11600CDE900072046012329
:103730000295FDF7FDFB3178B27B0DF11500CDE967
:103740000007204601230295FDF7F2FB3178F27B5A
:1037500005A8CDE90007204601230295FDF7E8FB07
:103760003178327C0DF11300CDE9000720460123AA
:103770000295FDF7DDFB3178727C0DF11200CDE989
:103780000007204601230295FDF7D2FB3178B27C79
:103790000DF11100CDE90007204601230295FDF748
:1037A000C7FB3178F27C04A8CDE90007204601234D
:1037B0000295FDF7BDFB3178327B0DF10F00CDE9AD
:1037C0000007204601230295FDF7B2FB3178727B9A
:1037D0000DF10E00CDE90007204601230295FDF70B
:1037E000A7FB9DF81B009DF81A109DF8182041EAD0
:1037F00000209DF819109DF817309DF8166042EAD8
:10380000012746EA03269DF815109DF814209DF81F
:1038100013309DF8125042EA012B45EA032A9DF825
:1038200011109DF810209DF80F309DF80E5000B239
:1038300042EA012945EA0328FCF767FE4FF6D574F2
:10384000C3F67F042146FCF7D7FC40F24005C2F2E4
:103850000005686038B2FCF758FE2146FCF7CCFC46
:10386000A86030B2FCF751FE2146FCF7C5FCE860C9
:103870000FFA8BF0FCF749FE4FF6D674C3F6795475
:103880002146FCF7B9FC28610FFA8AF0FCF73DFEEF
:103890002146FCF7B1FC68610FFA89F0FCF735FEB0
:1038A0002146FCF7A9FCA8610FFA88F046F26101F5
:1038B0004843C11501EBD070FCF730FE47F2A4027B
:1038C00044F2D733C0F63D22C4F24203FCF704FDB4
:1038D000FCF748FEE86107B0BDE8F08FFEE70000A6
:1038E0007047000070470000FDF70CBE70470000F5
:1038F00040F22C20C2F20000FEF7C2BB406A002159
:10390000C185C184FEF79CBC81B090F84210222989
:1039100021D183680246B3F5805F09D152F8281F90
:1039200052F8183C002B63D003685B680AE000BFC4
:1039300052F8281F13B90369002BF5D003685B68A0
:1039400003F07F030B70116801311160C18D0139E3
:103950000A04C18502D001B0704700BF0168CA687F
:1039600022F02002CA60CA6822F48072CA604A69E2
:1039700022F001024A61202180F8421000214163B7
:10398000026B012A3CD10163016851E8031F026800
:1039900021F0100142E80313DBB1016851E8031F75
:1039A000026821F0100142E8031393B1016851E865
:1039B000031F026821F0100142E803134BB10168B4
:1039C00051E8031F026821F0100142E80313002BA5
:1039D000DAD101680A68D20606D5002200920A6888
:1039E0000092496800910099818D01B0FEF726BCD4
:1039F000026852686FF35F2221F8022B8162A5E70B
:103A000001B0FEF7DFBF000040F27420C2F20000F8
:103A1000FEF718BC40F2BC20C2F20000FEF712BC58
:103A2000FEE700002DE9F04F85B040F2CC104FF0DA
:103A300000084FF0FF3601240DF11307C2F2000019
:103A40005321162210238DF81380CDE900740296BD
:103A5000FDF76EFA9DF81300012840F0D98140F27D
:103A6000CC15C2F200052846522140F2072210234D
:103A70008DF81340CDE900740296FDF701FC28464D
:103A800052214FF4027210238DF81340CDE90074D7
:103A90000296FDF7F5FB28465221962210238DF859
:103AA0001380CDE900740296FDF7EAFBFD208DF846
:103AB00013002846522197221023CDE90074029664
:103AC000FDF7DEFB28465221E32210238DF81380F8
:103AD000CDE900740296FDF7D3FB04208DF81300A6
:103AE00028465221E4221023CDE900740296FDF706
:103AF000C7FB4FF0020A28465221E52210238DF819
:103B000013A0CDE900740296FDF7BAFB28465221B6
:103B1000E62210238DF81340CDE900740296FDF7DC
:103B2000AFFB4FF0030928465221E72210238DF8FE
:103B30001390CDE900740296FDF7A2FB28465221AE
:103B4000F52210238DF813A0CDE900740296FDF73D
:103B500097FB4FF0050B28465221D92210238DF8F0
:103B600013B0CDE900740296FDF78AFBCE208DF8E4
:103B7000130028465221DB221023CDE9007402965F
:103B8000FDF77EFB28465221DC2210238DF813908E
:103B9000CDE900740296FDF773FBF8208DF8130051
:103BA00028465221DD221023CDE900740296FDF74C
:103BB00067FB284652219F2210238DF81380CDE900
:103BC00000740296FDF75CFB4FF03C092846522139
:103BD000A32210238DF81390CDE900740296FDF70F
:103BE0004FFB28465221B72210238DF81380CDE9D0
:103BF00000740296FDF744FB28465221BB22102395
:103C00008DF81390CDE900740296FDF739FB4FF063
:103C1000090A28465221B22210238DF813A0CDE9BB
:103C200000740296FDF72CFB28465221CA2210236D
:103C30008DF813A0CDE900740296FDF721FB28460C
:103C400052214FF4CC7210238DF81340CDE900744B
:103C50000296FDF715FB17208DF813002846522118
:103C60004FF4D8721023CDE900740296FDF708FBDB
:103C70002846522140F2AD1210238DF81380CDE971
:103C800000740296FDF7FCFA28465221FF22102309
:103C90008DF813B0CDE9007402964FF0FF09FDF7DF
:103CA000EFFA284652214FF4807210238DF813B09A
:103CB000CDE900740296FDF7E3FA2846522140F25E
:103CC000991210238DF813B0CDE900740296FDF718
:103CD000D7FA1B208DF81300284652214FF4D372D7
:103CE0001023CDE900740296FDF7CAFA3E208DF844
:103CF0001300284652214FF4D6721023CDE90074E8
:103D00000296FDF7BDFA1F208DF8130028465221B8
:103D100040F2A7121023CDE900740296FDF7B0FA25
:103D200028465221302210238DF81380CDE90074EB
:103D300002964FF03008FDF7A3FA10208DF813001B
:103D40002846522111221023CDE900740296FDF776
:103D500097FA284652214FF4857210238DF813806C
:103D6000CDE900740296FDF78BFA46208DF813001A
:103D7000284652213F221023CDE900740296FDF718
:103D80007FFA28465221312210238DF81390CDE975
:103D9000007402964FF03108FDF772FA63208DF837
:103DA00013002846522141221023CDE900740296C7
:103DB000FDF766FA284652212E2210238DF8134073
:103DC000CDE900740296FDF75BFA284652211B22CA
:103DD00010238DF813A0CDE900740296FDF750FA78
:103DE000284652213E2210238DF81380CDE900741D
:103DF0000296FDF745FA24208DF81300284652213B
:103E000014221023CDE900740296FDF739FA00243C
:103E1000204605B0BDE8F08F2DE9F04186B0FCF7F3
:103E2000CFFF40F26C01C2F200010A680024904208
:103E300068D340F2CC1502F10A004FF0FF38012799
:103E40000DF11306C2F20005086000BF2846532199
:103E50004D2210238DF81340CDE90067CDF808807E
:103E6000FDF766F89DF81300C007EFD040F2CC14C0
:103E70004FF0010805A8C2F200044FF0FF36CDE96B
:103E8000000820465221182210238DF81480029633
:103E9000FDF7F6F900270DF1150500BF2046532167
:103EA0004F2210238DF81570CDE900580296FDF7CA
:103EB0003FF89DF815004007F0D5002040F2CC15E2
:103EC0008DF8160001270DF11600C2F200054FF023
:103ED000FF36CDE9000728465321622210230296BF
:103EE000FDF726F807208DF817000DF117009DF853
:103EF0001640CDE9000728465221152210230296CC
:103F0000FDF7BEF9204606B0BDE8F08180B582B06D
:103F100040F22801C2F200010A68019001A910468E
:103F200001224FF0FF33FEF77BFD019802B080BD08
:103F300090B0FDF7F5FA0920002406904FF4803088
:103F40000225CDE90704CDE90D504FF4E010012121
:103F50000F9006A80B94CDE909440A910C91FDF746
:103F60008DFC28B1EFF3108072B600BFFEE700BFF2
:103F70000F20CDE901054FF48060CDE9040401A8CC
:103F800002210394FDF774FB20B1EFF3108072B6A9
:103F9000FEE700BFFFF756F9FFF74AFAFFF766FAA8
:103FA000FFF7B0F9FFF7D0F9FFF708FAFFF7EEF9DE
:103FB00040F22C20C2F20000FDF758FF40F230051D
:103FC000C2F2000500206870FFF726FB0A20FCF70C
:103FD000D5FDFFF727FD687820B101280ED142F208
:103FE000260201E042F2250240F2700040F2BC21BC
:103FF000C2F20000C2F20001FCF7A2FC40F2202451
:10400000C2F200042046FDF777FAFFF753FAFFF7F4
:1040100001FB6860FFF7F2FAA860FFF7F5FAE860C5
:10402000FFF7FAFE2870EDE70FB4054B10B503A9B2
:10403000044A029800F014F910BC5DF814FB00006B
:104040000D3F0008000000200FB47CB50C0009AD46
:1040500001D0611E00E00021CDE90001064B6A4657
:104060002946089800F0FCF8002C02D0009A0021A4
:1040700011707CBC5DF814FB8F49000841000802F8
:1040800018BF04200A0E18BF40F001004FF07F4215
:1040900032EA010108BF40F00200012808BF0520F4
:1040A0007047FCF751B86FF05E010807FCF73ABCA7
:1040B00002E008C8121F08C1002AFAD170477047F1
:1040C000002001E001C1121F002AFBD1704700004F
:1040D0000149086070470000040000202DE9FF5FDF
:1040E00082B00021DDE90430020DDDF840B0034369
:1040F00018D044F61050A2F2FF3242431514119822
:1041000001281FD0A5EB0B00401C5FEA000A4FF00E
:1041100000064E4FDFF83891B046504615D5CAF12B
:10412000000413E0119801244AA3012801D16FEA89
:104130000B010298119AC0E90031C0E9024206B0B1
:10414000BDE8F09FCBF10000DFE704460021404AC4
:10415000491842EB0450CDE9001012E0E00707D007
:1041600032463B4640464946FCF75DF98046894663
:1041700032463B4610461946FCF755F906460F46AF
:104180006410002CEAD1DDE90401DDE90023BAF175
:10419000000F06DAFCF747F942464B46FCF743F9B5
:1041A00005E0FCF7F7FA42464B46FCF7F3FA044603
:1041B0000E460022284BFCF775FB03D84FF0FF306A
:1041C000014607E00022254B20463146FCF784F8E3
:1041D000FCF74FFB102409E0002C0ADB0A22002325
:1041E000FCF7F2F9039B30321A55641E50EA0102C3
:1041F000F2D1641C039AC4F111031444119A012AE8
:1042000003D0012208430DD10AE0084304D0002066
:104210004FF0110B119072E7A3EB0B056D1E0DE033
:104220005B4504DD4FF0000205F1010504E003DA0F
:104230004FF00002A5F10105002AECD00298119977
:10424000C0E90231C0E9004579E7000000001440F0
:104250000000F03F300000000000F0430000E03FAD
:104260002DE9FF4F95B09B468946064600250FE293
:10427000252877D100242746F84A0121059400E03B
:10428000044316F8013F203B01FA03F01042F7D136
:1042900030782A2811D06FF02F033078A0F1300247
:1042A000092A16D8059A44F0020402EB820203EBB5
:1042B00042021044761C0590EFE759F8042B059252
:1042C000002A03DA504244F40054059044F00204FA
:1042D000761C30782E2816D116F8010F44F004040D
:1042E0002A280DD06FF02F023078A0F13003092B6F
:1042F00009D807EB870302EB4303C718761CF3E7E3
:1043000059F8047B761C30786C280FD006DC4C28DA
:1043100017D068280DD06A2814D104E0742810D072
:104320007A280FD10DE044F400140AE044F480141C
:1043300001E044F440147278824202D104F5801402
:10434000761C761C307866280BD013DC582877D082
:1043500009DC002875D04528F6D04628F4D0472837
:104360001AD19DE118E0632835D0642879D06528FA
:1043700012D195E1702873D008DC6728F1D0692844
:104380006FD06E280DD06F2806D1B5E073282CD0E1
:10439000752875D0782874D05A46179990476D1CA7
:1043A00075E1C4F30250022809D003280DD0D9F8D2
:1043B000001004280DD00D6009F1040967E1D9F857
:1043C0000010EA17C1E90052F6E7D9F800100D8095
:1043D000F2E70D70F0E719F8041B8DF800100020CB
:1043E0008DF80100EA46012003E059F804AB4FF0D4
:1043F000FF3061074FF0000102D40DE008F1010128
:104400008846B9420FDA8045F8DB1AF8081000290F
:10441000F4D108E008F1010188468142FADB1AF87C
:1044200008100029F6D105985B46A0EB0807214645
:104430003846179A00F094FA284400EB080507E084
:104440004DE029E10DE01AF8010B5A461799904703
:10445000B8F10108F7D25B4621463846179A13E1B6
:1044600042E00A220092C4F302524FF0000A022AEC
:1044700008D059F804CB032A4FEAEC710AD00DE0BA
:1044800029E02AE009F1070121F00702F2E802C160
:10449000914609E00FFA8CFC4FEAEC71042A03D133
:1044A0004FFA8CFC4FEAEC71002907DA0A4600212A
:1044B000DCF1000C61EB02012D2202E0220504D5A3
:1044C0002B228DF80420012203E0E20701D02022F4
:1044D000F7E7904659E00A2102E010220DE0102192
:1044E0004FF0000A00910BE010224FF0000A44F058
:1044F00004040827009203E008224FF0000A00920B
:10450000C4F30252022A05D059F804CB0021032A31
:1045100008D009E009F1070121F00702F2E802C121
:10452000914605E01FFA8CFC042A01D10CF0FF0C27
:104530004FF00008220728D5702806D0009B83F092
:10454000100353EA0A0305D00EE040228DF8042040
:10455000012208E05CEA010206D030228DF8042036
:104560008DF8050002229046009B83F0080353EA71
:104570000A030AD15CEA010201D1620705D53022A3
:104580008DF804204FF001087F1E582804D034A075
:1045900003900EA802900DE036A0F9E7534660465E
:1045A000009AFCF711F884460398825C0298401E3A
:1045B000029002705CEA0100F0D1029806A9081A84
:1045C00000F1200A600702D524F4803400E00127BE
:1045D000574502DDA7EB0A0000E0002000EB0A01CE
:1045E000009005984144401A0590E00306D45B46CC
:1045F0002146179A059800F0B3F90544002706E014
:1046000001A85A46C05D179990476D1C7F1C47450D
:10461000F6DBE0030CD55B462146179A059800F0BF
:104620009FF9054404E030205A46179990476D1CC5
:104630000099481E00900029F5DC08E002980299D4
:104640005A460078491C0291179990476D1CBAF19F
:104650000001AAF1010AF1DC65E10000092801006E
:1046600030313233343536373839616263646566E8
:1046700000000000303132333435363738394142AA
:10468000434445460000000000F058F90544761CFC
:10469000307800287FF4ECAD19B02846BDE8F08FE3
:1046A000620700D4062709F1070222F0070CFCE894
:1046B0000223E14603F000485FEA080C02D00FF243
:1046C000702C0DE05FEA045C02D50FF2682C07E065
:1046D0005FEAC47C02D00FF2602C01E0AFF2700CF4
:1046E0004FF0FF3823F00043CDF850C065280CD0C0
:1046F00006DC452809D046281DD047283DD13DE09D
:10470000662818D067287ED138E00021112F01DB00
:10471000112000E0781CCDE9000106A90EA8FFF7E2
:10472000DDFCDDE90F010E9A03910021009207F1F3
:10473000010A04914DE04FF000400097CDE90110CF
:1047400006A90EA8FFF7CAFCDDE90F0203920E9B33
:1047500011990022DDF80CA00093049211B9791C84
:1047600000EB010AB7EB0A0004D4C0F1FF3007F1F7
:10477000010A0490AAEB0700019044E0012F00DA3F
:1047800001270021112F01DD112000E03846CDE97D
:10479000000106A90EA8FFF7A1FCDDE90F010E9AA2
:1047A0000391002104910092BA4621070CD4039989
:1047B000514500DA8A46BAF1010F05DD009AAAF1E7
:1047C0000101515C302908D0B84202DA10F1040F1F
:1047D00006DA0121CDE9011015E0AAF10101E9E7AE
:1047E000002805DC049901440491AAEB000102E0D1
:1047F000411C514500DD8A460499401A401C019035
:104800004FF000400290200704D40198504501DB8E
:10481000CDF8048000208DF84F0002980DF14F076D
:10482000B0F1004F25D02B200E9002984FF00208D7
:1048300000280CDA404202902D200E9007E00A2159
:104840000298FBF7ABFE3031029007F8011DB8F17A
:104850000001A8F10108F2DC02980028EFD1791ECE
:104860000E980870307800F0200040F0450007F8FE
:10487000020D12A8C01B00F107081498007800B1BF
:10488000012000EB0A01019801EBE0710598414419
:10489000401A401E0590E00306D45B462146179A55
:1048A000059800F05DF805441498007818B15A4650
:1048B000179990476D1CE00324D55B462146179A53
:1048C000059800F04DF805441CE00498002807DB2B
:1048D000DDE90301884203DD0098405C179901E09F
:1048E000179930205A469047049805F10105401C5D
:1048F00004900198401E019004D12E205A46179929
:1049000090476D1CBAF10001AAF1010ADDDC05E057
:1049100017F8010B5A46179990476D1CB8F1000122
:10492000A8F10108F4DC5B462146179A0598ABE62E
:104930002D0000002B000000200000002DE9F041B8
:10494000044600251E461746880404D405E039466F
:104950002020B0476D1C641EF9D52846BDE8F081C3
:104960002DE9F041044600251E469046C80301D5B6
:10497000302700E02027880404D505E0414638466A
:10498000B0476D1C641EF9D52846BDE8F0814A6821
:10499000002A06D00A68531C0B6010704868401E3D
:1049A000486070472DE9F0474FF0684202EB400342
:1049B0000C460546B3F1654F3CBF02EB4102B2F134
:1049C000654F80F0CD8000BFC0F3C752C1F3C7531D
:1049D000D21A1B2A06DD10F0004F14BF8748884802
:1049E000BDE8F08712F11A0F2FDA11F0004F06D050
:1049F00010F0004F0CBF83488348BDE8F087214684
:104A00002846FBF72BFC0646FFF738FB042808BFB7
:104A1000FFF749FB2846FFF731FB05462046FFF725
:104A20002DFB04463046FFF729FB042D18BF052D4A
:104A300008D1042C18BF052C04D1002804BF022083
:104A4000FFF746FB3046BDE8F0874200B2EB410F6E
:104A500025D910F0004F19BF6C4F6D4E6D4F6E4E43
:104A6000224685F0004415460A4680F00041104673
:104A70000A1A5200B2F1807F3ED248406749DFF8FF
:104A8000A0A110F0004F18D04FF03F483846FBF778
:104A9000ADFB074651463046FBF7A8FB17E011F087
:104AA000004F04BF00263746E2D010F0004F19BF78
:104AB0005C4F5D4E5D4F5E4EDAE74FF07C583846F6
:104AC000FBF742FB074651463046FBF73DFB0646E7
:104AD00041462846FBF790FB2146FBF735FB824613
:104AE00021464046FBF788FB2946FBF782FB5146EF
:104AF000FBF7B4FB044604E021462846FBF7AEFB77
:104B000004460146FBF778FB80464A49FBF774FBF5
:104B10004949FBF719FB4146FBF76EFB4749FBF799
:104B200013FB4146FBF768FB4549FBF70DFB41468C
:104B3000FBF762FB4349FBF707FB0546414620466E
:104B4000FBF75AFB2946FBF757FB3146FBF7FCFA0C
:104B50002146FBF7F9FA3946BDE8F047FBF7F4BA0E
:104B60004FF07F42B2EB400F28BFB2EB410F03D2B0
:104B7000BDE8F047FFF795BA40EA01035B0008BFC4
:104B800044F0FF410AD0B2EB400F08BFB2EB410F37
:104B900006D125F0804024F0804105460C4613E7FD
:104BA000B2EB400F12BF5FEA410345F0FF4004F053
:104BB00000413FF409AFB2EB410F12BF5FEA400280
:104BC00005F0004044F0FF413FF4FEAE4A0092EA97
:104BD00040033FF5F9AE002AACBF4FF09F464FF0BF
:104BE0003E563146FBF708FB054631462046FBF7AB
:104BF00003FB044628462146E6E60000DB0FC9BF5A
:104C0000DB0FC93FDB0F4940DB0F49C00000C9BFC4
:104C100022AAFDB90000C93F22AAFD390060ED3E7D
:104C2000C30ACE37000049C022AA7DBA000049401D
:104C300022AA7D3A2DAD65BD8FB8D53D0FB511BE09
:104C400061C84C3EA8AAAABE0000000000000000F7
:104C50000102030406070809000000000102030422
:104C6000010202030405060708090A0B0C0D0E0FCA
:104C700010100000984C00080000002030000000D8
:104C8000B0400008C84C000830000020E0060000DA
:104C9000C04000080000000000000000000000000C
:104CA000D06B801B111C3B3C3D3E3F404142434486
:104CB00045464748010000001000000000127A003D
:084CC000740200200000000056
:04000005080000ED02
:00000001FF
