:020000040800F2
:100000003807002049010008BF2B00085B1F0008CB
:10001000BD2B0008C5070008ED33000800000000F4
:10002000000000000000000000000000CB300008CD
:10003000950A000800000000C12B0008CD30000820
:10004000630100086301000863010008CD2E000869
:1000500063010008630100086301000863010008F0
:1000600063010008630100086301000863010008E0
:1000700063010008630100086301000863010008D0
:1000800063010008630100086301000863010008C0
:1000900063010008630100086301000863010008B0
:1000A00063010008630100086301000863010008A0
:1000B0006301000863010008630100086301000890
:1000C0006301000863010008630100086301000880
:1000D00063010008D5330008E1330008630100081C
:1000E00063010008C52B00086301000863010008D4
:1000F0006301000863010008630100086301000850
:10010000630100086301000863010008630100083F
:10011000630100086301000863010008630100082F
:10012000630100086301000863010008630100081F
:10013000DFF810D000F0D4FA00480047D13D0008A5
:10014000AFF3008038070020064880470648004784
:10015000FEE7FEE7FEE7FEE7FEE7FEE7FEE7FEE777
:10016000FEE7FEE75331000831010008202A04DBD6
:10017000203A21FA02F00021704721FA02F3D04020
:10018000C2F12002914008431946704740EA01033A
:100190009B0703D009E008C9121F08C0042AFAD23D
:1001A00003E011F8013B00F8013B521EF9D2704701
:1001B000D2B201E000F8012B491EFBD270470022A9
:1001C000F6E710B513460A4604461946FFF7F0FF56
:1001D000204610BD10B5002200E0521C835C8C5CF0
:1001E000A34201D1002BF8D1D8B2E1B2401A10BD20
:1001F000034611F8012B00F8012B002AF9D118460B
:1002000070472DE9FE4F81EA030404F0004421F019
:10021000004100944FF0000B23F0004350EA01042A
:100220005ED052EA03045BD0C3F30A54C1F30A550B
:100230002C44A4F2F3340194A0FB0254C1F3130143
:1002400041F48011C3F3130343F4801301FB024410
:1002500000FB034E840A970A44EA815447EA835715
:10026000A4FB076802958D0A05FB07854FEA932CCE
:1002700004FB0C542705029D4FEA065847EA16373F
:10028000B5EB08056EEB070C870E920E47EA811757
:1002900042EA8312A7FB0201B6EB0B0164EB0004F8
:1002A0002B0D43EA0C335E1844EB1C50DA465146E2
:1002B000E7FB0201C5F313044FEA0B3343EA14537F
:1002C0004FEA0432019C43EA0603A4F10C040294B1
:1002D000009CCDE900B400F06FF803B0BDE8F08FEA
:1002E00000200146F9E700F0004230F000400AD05B
:1002F000C10D01F56071C0F3160042EA0151C20858
:1003000040071143704700200146704730B50B4647
:10031000014600202022012409E021FA02F59D4235
:1003200005D303FA02F5491B04FA02F52844151E09
:10033000A2F10102F1DC30BD2DE9F05F054600209D
:1003400092469B4688460646814640241BE0284646
:10035000414647462246FFF709FF53465A46C01A10
:10036000914110D311461846224600F0CBF92D1AC0
:1003700067EB01084F4622460120002100F0C2F938
:1003800017EB00094E41201EA4F10104DFDC4846B2
:1003900031462A464346BDE8F09F10B5141E73F15E
:1003A000000408DA401C41F1000192185B411A4335
:1003B00001D120F0010010BD2DE9F04D92469B4681
:1003C00011B1B1FA81F202E0B0FA80F22032904627
:1003D00000F098F904460F4640EA0A0041EA0B0192
:1003E00053465A46084313D0114653EA010019D028
:1003F000C8F140025046FFF7B9FE05460E4650468A
:100400005946424600F07EF9084305D0012004E039
:1004100020463946BDE8F08D0020054346EAE076E7
:100420002C4337430A986305E40AA0EB0800002236
:10043000FD0A44EA47540A3002D500200146E9E7A4
:10044000010510196941DDE9084500196941BDE858
:10045000F04DA2E72DE9FE4F804681EA0300C00F70
:100460000C46009021F0004123F00045B8EB02005B
:10047000A94105D24046214690461C460B460246FD
:1004800023F00040104347D0270DC7F30A00C3F301
:100490000A510290401A019040286BDAC3F313000E
:1004A00040F4801B0098924620B10023D2EB030A4F
:1004B00063EB0B0B01985946C0F14002504600F027
:1004C00021F906460D4650465946019A00F029F991
:1004D00010EB08006141002487EA115284EAE773B7
:1004E0001A4340D0009A62B3019A012A4FEA075298
:1004F00015DC001B61EB02014FF0004202EA0752DB
:10050000CDE90042001C41F5801132462B46FFF731
:1005100053FF03B0BDE8F08F40462146F9E7001BCA
:1005200061EB0201001C41F5801300185B412018AB
:10053000A2F5001747EB030140EAD570B6196D41EB
:1005400011E06D084FEA360645EAC0754FEA0752DA
:10055000001B61EB0201001C41F5801149084FEAC4
:1005600030000019514132462B4603B0BDE8F04F30
:10057000FFF713BF0098012240000023D0EB0202D6
:1005800063EBE073009821464FEAE074B8EB00009B
:1005900061EB0401E9E783F000435BE781F0004190
:1005A00058E72DE9F04D81EA030404F0004B21F0F7
:1005B000004514464FF0000A23F0004150EA0502BE
:1005C00020D054EA01021DD0C5F30A570246C5F3F4
:1005D0001303C1F31300C1F30A5640F4801543F42A
:1005E0008013A7EB0608101BD64608F2FD3873EB04
:1005F000050002D308F1010801E092185B41B8F14F
:10060000000F03DA00200146BDE8F08D00204FF412
:100610008011064684460EE0171B73EB050705D3D1
:10062000121B63EB050306434CEA010C49084FEA31
:10063000300092185B4150EA0107EDD152EA030005
:1006400012D082EA040083EA0501084305D0101B9A
:10065000AB4106D20122002306E000224FF0004306
:1006600002E06FF0010253101AEB06004CEB085148
:1006700010EB0A0041EB0B01BDE8F04DFFF78DBE1A
:10068000C1F30A52C1F3130140F2FF3341F4801168
:100690009A4202DA00200146704740F233439A4200
:1006A000A2F2334202DC5242FFF760BD00F02AB8EA
:1006B00030B5041E71F1000404DB4FF000444042E9
:1006C00064EB0101141E73F1000405DB1C464FF0BE
:1006D0000043524263EB0403994208BF904230BD8D
:1006E000064C074D06E0E06840F0010394E807007F
:1006F00098471034AC42F6D3FFF71EFDD8590008D6
:10070000F8590008202A04DB203A00FA02F1002000
:1007100070479140C2F1200320FA03F3194390403F
:100720007047202A06DBCB17203A41FA02F043EA51
:10073000E07306E041FA02F3D040C2F1200291409A
:1007400008431946704770B58C1810F8015B15F016
:10075000070301D110F8013B2A1106D110F8012B33
:1007600003E010F8016B01F8016B5B1EF9D12B0758
:1007700005D40023521E0DD401F8013BFAE710F80E
:10078000013BCB1A921C03E013F8015B01F8015BFB
:10079000521EF9D5A142D8D3002070BD00F00F0140
:1007A000000900EB800001EB4000C0B270470A2155
:1007B000B0FBF1F201FB1202B0FBF1F042EA0010D3
:1007C000C0B27047FEE7000070B5044600F02EFB93
:1007D0000C4B0022A3F118015D683DB1451BA542F9
:1007E00004D98A808A60CA600A705A60DD68002D68
:1007F00007D0401BA04204D9CA800A614A614A70EE
:10080000DA6070BD08010020016082800C4900227E
:10081000A0F806214A808A808A60CA600A70CA806D
:100820000A614A614A70183142F225030B805B1C51
:100830004A600B81CA60811D0068012201F024BB5F
:10084000F00000200148808870470000F000002080
:100850000148C08870470000F0000020014880680F
:1008600070470000F0000020014800697047000058
:10087000F00000200148007870470000F0000020E0
:100880000148407870470000F00000200148C0682F
:1008900070470000F00000200148406970470000E8
:1008A000F00000202DE9F04F99B00446B0F8061191
:1008B000801D1590085C491CFF2802D001F07F00C4
:1008C000A4E0A279A01D89B2FE2A7DD1421812F8B7
:1008D000012CFF2AF9D10F2976D341788288091F8C
:1008E000C9B291460929F0D150F8068F13464668DF
:1008F000077A01254BA2052116A802F089FD28F0F0
:10090000004BCBF1FF404146C00F06D1084602F034
:10091000ADFD10B945498B4500DD002526F0004AA4
:10092000CAF1FF40C00F06D1304602F09FFD10B95A
:100930003E498A4500DD00253D48834502DA18F02E
:10094000FF4F04D1824503DA16F0FF4F00D0002597
:1009500007B9002537A116A8FFF73CFC20B9374896
:10096000834542DC824540DC7DB3354D4A462DA1AE
:10097000A5F80290334802F065FD2EA13148FFF73B
:1009800029FC05F1180A28B12FA12E48FFF722FCF7
:1009900050B112E000F04AFACAF80400A5F8049039
:1009A000C5E902862F7008E000F040FACAF80C0092
:1009B000A5F80690C5E904866F703046FFF793FCF2
:1009C00005460E46404601E01FE00EE0FFF78BFCB7
:1009D0008DE8E3004B461EA2402105A802F018FD59
:1009E00005A920A002F004FD0FE03046FFF77BFCD4
:1009F00005460E464046FFF776FC8DE8E0000246CD
:100A00000B46494618A002F0F3FC0020A4F80601AA
:100A100081B2159801220144206819B0BDE8F04F59
:100A200001F032BA25303478000000000000B443F1
:100A30006F12833A3230323500000000F90215504F
:100A4000F000002010030020323032360000000099
:100A5000253034582C252E32662C252E32662C2536
:100A6000640A000025730000496E76616C69642099
:100A7000646174612064657465637465643A2025FB
:100A80003034582C252E32662C252E32662C2564C7
:100A90000A000000704772B6FEE710B590F821100A
:100AA0000022022905D00421816380F82020012042
:100AB00010BD01680B6823F00E030B6001680B6822
:100AC00023F001030B6090F84030C46B012101FA60
:100AD00003F3636080F8211080F82020104610BDD9
:100AE0002DE9F05F90F821100024022903D00421A1
:100AF0008163012485E001680A6822F00E020A6021
:100B000001680A6822F001020A603F4E3E4FB215AA
:100B1000DFF8F4C0DFF8F090DFF8ECA0DFF8E8B021
:100B2000DFF8E4E00168783F13011502ACF1640CD2
:100B3000A9F15009AAF13C0AABF1280BAEF1140E51
:100B40004FF48018B14227D9B9420ED0614512D076
:100B500049451DD0514518D0594518D0714501D18E
:100B6000424615E0294EB14201D1012210E0274E44
:100B70001436B14201D110220AE0244E2836B14287
:100B800006D0224A3C32914201D11A4600E02A4660
:100B90001E49091F0A602BE0B94213D0614517D0E6
:100BA000494522D051451DD059451DD0714501D12F
:100BB00042461AE0B14202D14FF0807215E0134E66
:100BC000B14201D1012210E0104E1436B14201D1E0
:100BD00010220AE00D4E2836B14206D00B4A3C32B4
:100BE000914201D11A4600E02A46074980394A60FD
:100BF000012180F82110002180F82010416B01B103
:100C000088472046BDE8F09F80000240080402406B
:100C100070B5044600F00AF90546601C02D004488D
:100C20000078044400F002F9401BA042FAD370BDE2
:100C30001C0100202DE9F84FDFF8C8910024A9F12C
:100C4000040B23460F2709F1040AABF1040ED1E08F
:100C50000125A54006EA0502AA4276D1DFF8A8C11F
:100C60004E68A6EB0C0866452BD00DDC032E34D065
:100C700005DC36B3012E19D0022E2FD11BE0112E28
:100C800016D0122E2AD119E0B8F5881F19D006DC2B
:100C9000B8F5803F15D0B8F5801F1FD111E0B8F529
:100CA000001F0ED0B8F5041F18D10AE0CB6815E07C
:100CB000CB681B1D12E0CB6808330FE0CB680C3308
:100CC0000CE08B682BB1012B4FF0080303D045617A
:100CD00004E0042302E0056100E00023FF2A01D8BC
:100CE000064601E000F104064FEA840501D9A5F1AA
:100CF0002005D6F8008007FA05FC28EA0C0803FA5C
:100D000005F548EA0508C6F800804D68ED0070D585
:100D10003E4DAE6946F00106AE61AD6924F00306B2
:100D200005F0010500953A4D06EB050CDCF808507E
:100D3000A607360F07FA06F825EA0805DFF8D4807B
:100D4000404503D14FF0000825E052E0DFF8C880AD
:100D5000404502D14FF001081DE0DFF8C08040455A
:100D600002D14FF0020816E0DFF8B480404502D10E
:100D70004FF003080FE0DFF8AC80404502D14FF0A0
:100D8000040808E0DFF8A080404502D14FF00508D4
:100D900001E04FF0060808FA06F848EA0508CCF822
:100DA00008804D68D9F80060ED024D4601D5164324
:100DB00000E096432E604D68DAF80060AD025546BB
:100DC00001D5164300E096432E604D68DBF80060C5
:100DD000AD035D4601D5164300E096432E604D6895
:100DE000DEF80060ED03754601D5164300E096433A
:100DF0002E60641C0A681646E2407FF429AFBDE805
:100E0000F88F00000804014000001110001002409B
:100E10000000014000080140000C014000100140AA
:100E20000014014000180140001C01400148806886
:100E3000704700001C01002070B5040013D0216829
:100E40004CF6CC400860216845F255500860D4E962
:100E5000000141602168A0688860FFF7E7FF054650
:100E600041F23C360DE0012070BD00BFFFF7DEFF10
:100E7000401BB04205D92068C068800701D003201C
:100E800070BD2068C0688007F0D121684AF6AA20AA
:100E90000860002070BD00684AF6AA2101600020A9
:100EA00070470000024881680278114481607047F1
:100EB0001C010020074810B5016841F010010160D5
:100EC000032000F075F80F2000F006F800F024F879
:100ED000002010BD0020024070B50D4D04464FF4B7
:100EE0007A712878B1FBF0F00A490968B1FBF0F09B
:100EF00000F0DFFD48B9102C07D200222146501E19
:100F000000F036F800206C6070BD012070BD00005C
:100F10001C010020280100200C4808B5816941F01F
:100F200001018161816901F001010091C16941F014
:100F30008051C161C06900F0805000900448416850
:100F400021F0E06141F00071416008BD00100240F5
:100F500000000140002809DB00F01F020121914040
:100F60004009800000F1E020C0F800117047000047
:100F7000F0B40E4B1B680C46C3F30223C3F1070504
:100F8000042D00D90425191D072901D2002300E0F2
:100F9000DB1E012606FA05F1491E214099409E40BC
:100FA000761E16403143F0BC02F069BA0CED00E049
:100FB000064900F0070208684FF6FF03184040EAB0
:100FC0000220034A10430860704700000CED00E067
:100FD0000000FA05014901200862704700000E4236
:100FE00010B501460020284C04292FD00BDC012924
:100FF00030D0022929D100F06BF96168C1F3813149
:10100000491C49001FE0082920D010291DD1616822
:101010002268D20119D51D48C1F38342C903805CFF
:101020000AD56168194AC1F34041921E515C184AC1
:10103000B2FBF1F1484301E01649484361684902B7
:1010400003D440000321B0FBF1F010BDBDE8104017
:1010500000F04EB9226AC2F30121012903D192079F
:1010600001D5C80310BD022905D1626A920702D5D5
:1010700049F6404010BD0329FCD121688903F9D508
:101080004FF2244010BD0000001002406C590008CF
:1010900000127A0000093D002DE9F843054600786A
:1010A000354CC00754D0E0690026C00008D4E06980
:1010B00040F08050E061E069012600F0805000902F
:1010C0002E480168C90512D40168804641F4807138
:1010D0000160FFF7ABFE074605E000BFFFF7A6FE85
:1010E000C01B642823D8D8F80000C005F6D5206AB4
:1010F00010F4407021D0A98801F4407181421CD0C5
:10110000206A1F49012220F440700A6000220A6010
:101110002062C00711D0FFF789FE074641F28838E8
:1011200008E000BFFFF782FEC11B414502D9032042
:10113000BDE8F883206A8007F4D5206A696820F446
:101140004070084320621EB1E06920F08050E061E9
:101150002878800705D56068A96820F440400843D6
:1011600060602878C00605D56068696920F4800051
:10117000084360600020DBE7001002400070004080
:10118000400442422DE9F0470F46050061D0434E2E
:10119000306800F00700B84209D2306820F007003C
:1011A00038433060306800F00700B84251D12868F9
:1011B0003B4C810712D5400703D5606840F4E060DE
:1011C00060602878000703D5606840F46050606074
:1011D0006068A96820F0F000084360602878C007C4
:1011E00028D06868012810D02168022810D089070B
:1011F00000292EDA616821F0030101436160FFF7E5
:1012000015FE804641F288390DE021688903EFE739
:101210008901EDE7FFF70AFEA0EB0801494502D975
:101220000320BDE8F0876068696800F00C00B0EB4F
:10123000810FEFD1306800F00700B8420BD9306859
:1012400020F0070038433060306800F00700B842F3
:1012500001D00120E5E72878400705D56068E968F6
:1012600020F4E060084360602878000706D56068D5
:10127000296920F4605040EAC100606000F038F84D
:101280006168084AC1F30311515CC840064908600F
:1012900006480068FFF720FE0020C2E70020024059
:1012A000001002407C590008280100202001002085
:1012B0000448054900684968044AC1F30221515CA9
:1012C000C840704728010020001002408C590008D7
:1012D0000448054900684968044AC1F3C221515CC9
:1012E000C840704728010020001002408C590008B7
:1012F0000E4A51680E4801F00C03042B11D0082B44
:101300000FD10C48C1F38343C903C05C0AD55168AF
:10131000084AC1F34041921E515C054A5043B0FB5C
:10132000F1F0704704494843704700000010024044
:1013300000127A005A59000800093D002DE9F84FC3
:10134000040070D02078C04DC00749D06868C0F351
:101350008100012807D06868C0F38100022809D104
:101360006868C00306D52868800339D560680028FE
:10137000E7D035E06068B0F5803F0BD010B1B0F534
:10138000A02F11D0286820F480302860286820F42D
:10139000802002E0286840F480302860606890B1C6
:1013A000FFF744FD06460AE0286840F480202860E4
:1013B000F0E700BFFFF73AFD801B642873D8286868
:1013C0008003F7D50CE0FFF731FD064605E000BFCE
:1013D000FFF72CFD801B6428F0D828688003F7D421
:1013E00020789A4E80074FF001094FF0000839D558
:1013F000686810F00C0F07D06868C0F381000228FD
:1014000009D16868C00306D42868800714D520690C
:10141000012808D110E02069B0B1C6F80090FFF7AC
:1014200005FD074605E00AE1FFF700FDC01B0228A5
:10143000C4D828688007F7D52868616920F0F800CB
:1014400040EAC10028600DE0C6F80080FFF7EEFC1E
:10145000074604E0FFF7EAFCC01B022823D82868EF
:101460008007F7D4207800072CD57948A169D9B135
:10147000C0F80090FFF7DAFC074604E0FFF7D6FC5F
:10148000C01B02280FD8686A8007F7D571484FF44F
:10149000FA510068B0FBF1F0009000BF0098411EC7
:1014A0000091FAD20EE080E0C0F80080FFF7BEFCA9
:1014B000074604E0FFF7BAFCC01B022875D8686A2B
:1014C0008007F7D42078400760D5E8690027C0007E
:1014D00008D4E86940F08050E861E869012700F02D
:1014E000805000905C480168C90513D401688346A8
:1014F00041F480710160FFF799FC824606E000BF6D
:10150000FFF794FCA0EB0A0064284ED8DBF800003B
:10151000C005F5D5E06801280AD008B1052813D028
:10152000286A20F001002862286A20F0040002E006
:10153000286A40F001002862E06841F2883B98B1D7
:10154000FFF774FC82460BE0286A40F00400286232
:10155000EEE700BFFFF76AFCA0EB0A0159455AD835
:10156000286A8007F6D50CE0FFF760FC824605E0AC
:10157000FFF75CFCA0EB0A0159454CD8286A8007AC
:10158000F6D41FB1E86920F08050E861E06988B3C3
:101590006968C1F38101022944D00228C6F860803D
:1015A00004D0FFF743FC044638E034E0FFF73EFC8C
:1015B000074604E0FFF73AFCC01B02282BD8286836
:1015C0008001F7D4206AB0F5803F05D16868A16832
:1015D00020F4003008436860D4E9080108436968D2
:1015E00021F4741108436860C6F86090FFF71EFC90
:1015F000044606E025E000BFFFF718FC001B0228A8
:1016000009D828688001F7D51BE000BFFFF70EFC62
:10161000001B022802D90320BDE8F88F286880014A
:10162000F4D40EE00128F7D06868226A00F4803113
:10163000914204D1616A00F47010884201D0012007
:10164000EAE70020E8E70000001002400000424204
:10165000800442422801002000700040024850F8F7
:10166000210080B270470000006C0040024800EB8F
:10167000810091B201607047006C00407047704774
:1016800010B5044600680168C90717D04168C9074A
:1016900014D040684007204607D5FFF7F0FF2168C7
:1016A0006FF004004860042002E0FFF7E7FF01202C
:1016B00060742068416821F00101416010BD7047ED
:1016C00010B504460068016889070AD5406880079C
:1016D00007D52046FFF7F3FF2068416821F002019B
:1016E000416003494FF4003008600120607410BD70
:1016F00014040140F8B505004FF0000016460C46F2
:10170000009006D02CB100226946284600F019F856
:1017100008B10120F8BD287B2070E87BE070697B70
:101720006170A97BA17056B101F0B5FAE0706078E4
:1017300001F0B1FA6070A07801F0ADFAA07000205D
:10174000F8BD2DE9F04791460C465FEA00084AD003
:1017500084B3D8F800004068400744D4404601F004
:1017600023FC4FF461620546B0FBF2F1B0FBF2F3EB
:1017700002FB13503C23B0FBF3F0B5FBF2F66070B4
:1017800002FB1650B0FBF3F203FB1200A070182905
:1017900031D31820B1FBF0F7B1FBF0F200FB1210CF
:1017A0002070404601F0F9FB411C04D0A84202D948
:1017B000461B02E017E04FF0FF36A7EB071000EBE7
:1017C0004000C0EB001005EBC0152946404601F073
:1017D00068FC40B9701C01D0711900E031464046E8
:1017E00001F04BFC10B10120BDE8F08739464046BE
:1017F00001F0DEFA00E02170B9F1000F0BD0207883
:1018000001F049FA2070607801F045FA6070A07824
:1018100001F041FAA0700020E6E7000070B5040076
:1018200003D0607C002610B105E0012070BD267455
:10183000204600F03DF802206074204600F01CF9BC
:10184000042550BB204601F00AFB30BB20684168EC
:1018500021F007014160A06820B11448016821F01F
:10186000010101601148001F0168A26821F4607144
:10187000114301606068411C04D10120FFF7B0FBF7
:1018800058B1401E2268C0F303419160216880B2C4
:10189000C860204601F0FEFA08B16574C5E7E6733A
:1018A00001206073A0736074002070BD306C004034
:1018B00038B50068114988421FD1114CE06940F0E9
:1018C0008050E061E06900F080500090FFF782FBFB
:1018D000E06940F00060E061E0690A4900F0006002
:1018E000009001200860002211460320FFF740FB12
:1018F000BDE838400320FFF72DBB38BD002800406D
:10190000001002403C0442422DE9F0410D46040023
:101910003BD0C5B3207C01283AD04FF0010884F8B1
:10192000108002206074E87872B301F0ABF9E073C4
:10193000687801F0A7F96073A87801F0A3F9A073A3
:10194000C2B2617BE07B01F06DFB20732870204602
:1019500001F02AFB4FF46161B0FBF1F10025182979
:101960002DD91822B1FBF2F1A1EB011101EB4101DC
:10197000C1EB011100EBC1163146204601F091FB8D
:101980000427C8B90BE000E004E00120BDE8F081C5
:101990000220FBE7E07368786073A878CFE7204601
:1019A00001F0FBFA411C0AD0B04208D206490144BA
:1019B000204601F062FB10B167742574E5E784F8F6
:1019C000118025740020E1E7805101002DE9F041EC
:1019D0000D46040024D01DB3207C012823D04FF0F5
:1019E000010884F81080022060742878EAB101F0C0
:1019F00049F94FF4616100FB01F6687801F042F9A2
:101A0000C0EB001006EB8006A87801F03BF9351812
:101A10002946204601F045FB0026042710BB0FE0B5
:101A20000120BDE8F0810220FBE74FF461614843EB
:101A30006978C1EB011100EB8100A9784518E7E74F
:101A40002068416821F005014160204601F0A5FAB7
:101A5000411C0AD0A84208D206490144204601F0A0
:101A60000CFB10B167742674DAE784F811802674D1
:101A70000020D6E78051010070B504000AD020682C
:101A8000416821F008014160FFF7D0F905464FF4A5
:101A90007A7608E0012070BDFFF7C8F9401BB0421C
:101AA00001D9032070BD206840680007F4D50020EC
:101AB00070BD10B5401EB0F1807F01D3012010BD74
:101AC0004FF0E02460610F21601701F0D8FC002086
:101AD000A06107202061002010BD70477047000002
:101AE000F8B5016804460868CA684B6910F00F0F22
:101AF0004FF0000559D003F0010602F49077374308
:101B000065D0C10705D0D10503D5616C41F0010155
:101B10006164410705D5D90703D0616C41F002012A
:101B20006164810705D5D90703D0616C41F00401D8
:101B30006164010707D502F02001314303D0616CD5
:101B400041F008016164616C00293AD0800604D537
:101B5000900602D5204601F02CFB20684069616C9C
:101B6000C0F38010090700D460B3204601F0FAFAF0
:101B700020684069400621D52068143050E8001FD5
:101B800021F0400140E80012002AF5D1E06BA8B135
:101B90006D494163E06BFEF7A3FF002811D0E06BB5
:101BA000416B01B0BDE8F040084783060FD59306AE
:101BB0000DD52046BDE8F84001F0FBBA2046FFF7FE
:101BC0008DFFF8BD2046FFF789FF6564F8BD266BE1
:101BD0002023012E7CD1C6067AD5D60678D5086892
:101BE0004868009048694FF00206400640D5E16B16
:101BF000086840680004000CE8D0A28D8242E5D954
:101C0000E085886920282DD020680C3050E8001F1E
:101C100021F4807140E80012002AF5D120681430C8
:101C200050E8001F21F0010140E80012002AF5D120
:101C30002068143050E8001F21F0400140E80012F5
:101C4000002AF5D184F84230256320680C3050E832
:101C5000001F21F0100140E80012002AF5D1E06BCE
:101C6000FEF71BFF6663A08DE18D401A81B22AE06A
:101C7000A08DE18D401A81B2E08D0028A6D0002908
:101C8000A4D022680C3252E8000F20F4907042E891
:101C90000007002FF5D12068143050E8002F22F003
:101CA000010240E80027002FF5D184F84230256377
:101CB00020680C3050E8002F22F0100240E800238A
:101CC000002BF5D166632046FFF707FFF8BDFFE75D
:101CD00005062BD5150629D594F841002128F5D104
:101CE000A068B0F5805F01D12069B0B1206A411CC5
:101CF0002162216800784860E08C401E0004000CDE
:101D0000E084E3D12068C16821F08001C1602068CF
:101D1000C16841F04001C160D8E7206A0088C0F383
:101D200008004860206A801C2062E5E74006CDD5A7
:101D30005006CBD5CA68204622F04002CA6084F81B
:101D4000413000F009F9C1E75531000870B50400D1
:101D500004D094F84100002510B106E0012070BDC8
:101D600084F84050204600F023F8242084F84100F5
:101D70002068C16821F40051C160204601F07AFA60
:101D80002068016921F4904101612068416921F0D6
:101D90002A0141612068C16841F40051C160656455
:101DA000202084F8410084F842006563002070BD63
:101DB00070B586B0002400940194029403942E4ED2
:101DC00003682E49022003222D4DB34226D18B6990
:101DD00043F480438B618B6903F4804304938B69E4
:101DE00043F004038B618969039201F004010491BB
:101DF0000102CDE9001069462846FEF71BFF2815B1
:101E0000CDE90004694628460294FEF713FF00223C
:101E100011462520FFF7ACF8252028E0194EB342E3
:101E200027D1CB6943F40033CB61CB6903F4003392
:101E300004938B6943F004038B618969039201F079
:101E4000040104910421CDE9001069462846FEF7FB
:101E5000F1FE0820CDE90004694628460294FEF709
:101E6000E9FE002211462620FFF782F82620FFF720
:101E700071F806B070BD000000380140001002404B
:101E8000000801400044004090F84230202B01D06F
:101E90000220704721B11AB10023036301F046BA52
:101EA0000120704703490968814202D10148FEF7C9
:101EB000F9BC7047300100202DE9F843044690F842
:101EC0004100984616460D46202802D00220BDE863
:101ED000F88385B17EB100206064212084F8410040
:101EE000FEF7A4FFA6848146E684A0682027B0F50B
:101EF000805F02D003E00120E9E7206910B12E469F
:101F000000250EE000260CE08021204601F029FA91
:101F1000A8B9C6B116F8010B21684860E08C401ED4
:101F2000E084E08C4B464FF00002CDF800800028A2
:101F3000EAD14FF04001204601F013FA40B184F895
:101F400041700320C3E735F8020BC0F30800E3E754
:101F500084F841700020BAE77047FEE7F0B50F49FA
:101F60000646002408884D8821464543204600F057
:101F700093FB00F0D1FC0A494FF480774A15DFF853
:101F800024C0802307E00F614A61CCF800604B61F8
:101F90000B610A61641CAC42F5D3F0BD280300203C
:101FA000001001400C0C014070B40A49F0262C22AC
:101FB0002A2388714FF4A0752B2440B10D804E80E8
:101FC0000A814B818C8170BC002000F0FBB90E802F
:101FD0004D80F5E7280300202DE9F74FDFF89090BA
:101FE00082468B46B9F80A0000F084FC214C4FF47D
:101FF0008077276165156561DFF87C804FEA1A21DB
:10200000C8F8001080266661266125612761656138
:102010000AF0FF01C8F80010666126612561B9F871
:102020000C0000F067FC276165614FEA1B21C8F8CE
:102030000010666126612561276165610BF0FF0173
:10204000C8F8001066612661256167616561B9F8AD
:102050000810C8F800106661266125612761656176
:102060000298C8F80000666126612561BDE8FE8F10
:1020700028030020001001400C0C014070B5B74847
:1020800086B0816941F008018161816901F0080130
:102090000491816941F0100181618069012500F09E
:1020A000100004904FF4F860CDE900050320CDE95D
:1020B00002506946AA48FEF7BDFD4FF6FF76694615
:1020C000A8480096FEF7B6FDA748416821F0E061F8
:1020D00041F080614160322001F045FE0121002085
:1020E00000F020FC322001F03EFED32000F002FC84
:1020F00000F040F99D4CA08000F03CF9A08000F079
:1021000039F906EA0020A08000F034F9A1880843DC
:10211000A0F51341A08041397ED1CF2000F0EAFB29
:10212000002000F0D5FBC12000F0D2FB302000F0F1
:10213000CFFBED2000F0DEFB642000F0C9FB0320A4
:1021400000F0C6FB122000F0C3FB812000F0C0FBB2
:10215000E82000F0CFFB852000F0BAFB102000F053
:10216000B7FB7A2000F0B4FBCB2000F0C3FB392092
:1021700000F0AEFB2C2000F0ABFB002000F0A8FB31
:10218000342000F0A5FB022000F0A2FBF72000F0B5
:10219000B1FB202000F09CFBEA2000F0ABFB00200C
:1021A00000F096FB002000F093FBC02000F0A2FBA3
:1021B0001B2000F08DFBC12000F09CFB012000F0F3
:1021C00087FBC52000F096FB302000F081FB30201B
:1021D00000F07EFBC72000F08DFBB72000F078FBFD
:1021E000362000F087FB482000F072FB3A2000F018
:1021F00081FB552000F06CFBB12000F07BFB002040
:1022000000F066FB1A2000F063FBB62000F072FBC2
:102210000A2000F05DFB00E095E0A22000F058FBF2
:10222000F22000F067FB002000F052FB262000F0B7
:1022300061FB012000F04CFBE02000F05BFB0F2075
:1022400000F046FB2A2000F043FB282000F040FB72
:10225000082000F03DFB0E2000F03AFB082000F0C3
:1022600037FB542000F034FBA92000F031FB432061
:1022700000F02EFB0A2000F02BFB0F2000F028FBC3
:10228000002000F025FB002000F022FB002000F0E1
:102290001FFB002000F01CFBE12000F02BFB0020C6
:1022A00000F016FB152000F013FB172000F010FBC8
:1022B000072000F00DFB112000F00AFB062000F0C3
:1022C00007FB2B2000F004FB562000F001FB3C2014
:1022D00000F0FEFA052000F0FBFA102000F0F8FAFA
:1022E0000F2000F0F5FA3F2000F0F2FA3F2000F056
:1022F000EFFA0F2000F0ECFA2B2000F0FBFA0020A0
:1023000000F0E6FA002000F0E3FA012000F0E0FA25
:102310003F2000F0DDFA2A2000F0ECFA002000F067
:10232000D7FA002000F0D4FA002000F0D1FAEF2014
:1023300000F0CEFA112000F0DDFA782001F013FD54
:10234000292000F0D7FA0020FFF72EFE0848C0F839
:10235000A8513046FFF702FE06B070BD00100240E3
:1023600000100140000C0140000001402803002043
:1023700000002242F0B5114A4FF088301060131D62
:1023800018600E4C00200C3420600D499015086137
:1023900045004D6140264E610220401EC0B2FCD275
:1023A0000648083000680E6180B20D614FF033318D
:1023B000116019604FF6FF712160F0BD000C014003
:1023C000001001402DE9F04FB04D00242946AA79B4
:1023D000898841F66317012A01D01AB10CE0B9428D
:1023E00002D109E0B94207D1082805D2DFE800F0A0
:1023F000161812140C19100E082812D2DFE800F07B
:10240000110406080A0C0E1080240AE0402408E09B
:10241000C02406E0202404E0602402E0A02400E0C0
:10242000E02445F21056B14202D14FF4585000E07A
:102430003620A1F51342413A03D0A1F5EE42893A84
:1024400001D144F00804214600F06CFAA888B84293
:102450000AD0A10629886A8802D5914202D303E0F6
:10246000914201D92A8069804FF48077DFF8208279
:102470007C004FF0000A4FF0800BB0427DD168899C
:1024800000F038FAC8F81070C8F81440DFF8049269
:10249000C9F800A05E46C8F814B0C8F810B0C8F873
:1024A00010406889401C80B200F024FAC8F810700F
:1024B000C8F81440C9F800A0C8F81460C8F8106043
:1024C000C8F810406889801C80B200F013FAC8F880
:1024D0001070C8F814402888401E0112C9F8001076
:1024E000C8F81460C8F81060C8F810406889C01CAB
:1024F00080B200F0FFF9C8F81070C8F814402878CE
:10250000401EC1B2C9F80010C8F81460C8F81060C5
:10251000C8F81040A88900F0EDF9C8F81070C8F8A4
:102520001440C9F800A0C8F81460C8F81060C8F8D2
:102530001040A889401C80B200F0DCF9C8F8107087
:10254000C8F81440C9F800A0C8F81460C8F81060B2
:10255000C8F81040A889801C80B200F0CBF9C8F8F8
:102560001070C8F814406888401E0112C9F80010A5
:10257000C8F81460C8F8106000E014E0C8F8104013
:10258000A889C01C80B200F0B5F9C8F81070C8F86E
:102590001440A878401EC1B2C9F80010C8F81460F1
:1025A000C8F810606DE0A946688900F0A3F9C8F882
:1025B0001070C8F81440374EC6F800A05D46C8F841
:1025C00014B0C8F810B0C8F81040C8F81070C8F8B7
:1025D0001440C6F800A0C8F814B0C8F810B0C8F885
:1025E0001040C8F81070C8F81440B9F80000401E38
:1025F00001123160C8F814B0C8F81050C8F8104083
:10260000C8F81070C8F81440C0B23060C8F8145050
:10261000C8F81050C8F81040B9F80C0000F06AF97A
:10262000C8F81070C8F81440C6F800A0C8F81450D4
:10263000C8F81050C8F81040C8F81070C8F8144016
:10264000C6F800A0C8F81450C8F81050C8F81040D8
:10265000C8F81070C8F81440B9F80200401E011202
:102660003160C8F81450C8F81050C8F81040C8F8C5
:102670001070C8F81440C0B23060C8F81450C8F8E0
:102680001050C8F81040BDE8F08F0000280300206B
:10269000001001400C0C01402DE9F04FDFF870B044
:1026A00082468946BBF80A0000F024F9194C4FF421
:1026B0008077276165156561DFF85C804FEA1A2134
:1026C000C8F8001080266661266125612761656172
:1026D0000AF0FF01C8F80010666126612561BBF8A9
:1026E0000C0000F007F9276165614FEA1921C8F86D
:1026F00000106661266125612761656109F0FF01AF
:10270000C8F80010666126612561BDE8F08F000001
:1027100028030020001001400C0C01402DE9FF4F60
:102720001D460C468A46580700D0012000EBD50014
:1027300069084843203A00F0FF09D0B20026DFF8CC
:102740009CB0029045E00C2D12D0102D15D0182D04
:1027500041D10298224900EBC00000BF01EB80008C
:102760004FF00008875D38060CD51E4802880DE042
:1027700002981D4900EB4000F0E71C49029801EB6C
:102780000010EDE70D9828B91648428821460098B8
:10279000FFF722FC7806070E641CBBF80200A4B207
:1027A000A04218D9A4EB0A00A84209D100985446C7
:1027B000401C80B20090BBF8001081420BD906E0AB
:1027C00008F1010000F0FF08B8F1080FCBD3761C28
:1027D000F6B24E45B7D3BDE8FF8F000028030020B6
:1027E000FC4B000818010020984100080C46000826
:1027F0002DE9FF4F9346074600244FF0800A01E081
:10280000082C04D21BF814800BEB440007E0A4F161
:1028100008000399C0B211F8108001EB40000025B8
:1028200090F801900198061978192AFA05F280B2F9
:10283000B1B212EA080F01D00D9A00E00E9AFFF72C
:10284000CBFB6D1CADB2082DEED3002578190830F6
:102850002AFA05F280B2B1B212EA090F01D00D9A3C
:1028600000E00E9AFFF7B8FB6D1CADB2082DEDD35A
:10287000641CA4B2102CC3D3BDE8FF8F2DE9F84F20
:10288000044600F0FF0910190D46DDE90AB61FFAEB
:1028900080F8581987B24FF0000A12E0444503D37C
:1028A00005EB0B004C4685B2BD420FD25B46294674
:1028B0002046CDF800A0FFF731FF04EB5B0084B2A7
:1028C000761C3278A2F120005E28E7D9BDE8F88FA7
:1028D00006494FF480720A614A154A61044B186038
:1028E0008020486108610A617047000000100140C3
:1028F0000C0C014006494FF480724A614A154A6146
:10290000044B18608020486108610A61704700002C
:10291000001001400C0C014001480089FFF7EABF9C
:102920002803002010B50C46FFF7E4FF06484FF4DB
:102930008071016141154161044A14608022426145
:102940000261016110BD0000001001400C0C01404B
:102950000D4808B5816941F010018161816901F07C
:1029600010010091816941F020018161816901F0CC
:1029700020010091816941F004018161806900F0CA
:102980000400009008BD000000100240094810B586
:10299000074901600621416040F271218160FEF724
:1029A0004BFA002803D0BDE81040FEF774B810BD04
:1029B0000030004060020020F0B585B000265F4C7A
:1029C00003960196E06940F08050E061E06900F014
:1029D00080500090FEF7FEFAE06940F00060E06190
:1029E000E069584D00F00060009055482860701E66
:1029F0006860A015A8602846FEF710FF08B1FEF732
:102A00004AF801214F48FEF729FE4AF2A557B8427D
:102A100029D017208DF80C0046208DF80D008DF878
:102A20000E60012203A94748FEF7D0FF08B1FEF768
:102A300032F830208DF8060004208DF8050025209E
:102A40008DF8070002208DF80400012201A93D48FD
:102A5000FEF75AFF08B1FEF71EF83A460121394841
:102A6000FEF704FE5DE001A9364800F0ADFA012250
:102A700001A93448FEF748FF08B1FEF70CF83148C9
:102A800000F014F9F0B3012203A92E48FEF759FE15
:102A9000C0BB9DF80C00FDF781FE4FF4616100FBA7
:102AA00001F69DF80D00FDF779FEC0EB001006EB76
:102AB00080069DF80E00FDF771FE0644214FE06987
:102AC00040F08050E061E06900F080500090FEF737
:102AD00081FAE06940F00060E061E069092100F0FE
:102AE000006000903846FEF7B9FD04460A213846DA
:102AF000FEF7B4FD44EA004013493044B0FBF1F660
:102B0000002404E012E001A800F0E6F9641CB442DD
:102B1000F9D3012201A90B48FEF7F6FE08B1FDF733
:102B2000BAFF03AA01A9074800F052F82868016813
:102B300041F00101016005B0F0BD0000001002404D
:102B4000002800406C020020805101000C4810B5A4
:102B50000A4901604FF4E1314160002181600C229B
:102B6000C160C0E904128161C161FFF7EFF800287C
:102B700003D0BDE81040FDF78EBF10BD0038014006
:102B8000800200200C4810B50A4901604FF4E13181
:102B90004160002181600C22C160C0E904128161A2
:102BA000C161FFF7D3F8002803D0BDE81040FDF75E
:102BB00072BF10BD00440040C8020020FEE7FEE7DF
:102BC000704700000148FEF77BBD00006C0200204A
:102BD000F8B52B4D07461446E8690E4640F0805084
:102BE000E861E86900F080500090FEF7F3F9E869C9
:102BF00040F00060E861E869022100F000600090A8
:102C0000F2783846FEF732FD727803213846FEF737
:102C10002DFDB27804213846FEF728FD32780521D3
:102C20003846FEF723FD227806213846FEF71EFDC2
:102C3000627807213846FEF719FDA2780821384648
:102C4000FEF714FD2078FDF7A9FD4FF4616100FB4C
:102C500001F56078FDF7A2FDC0EB001005EB8005E3
:102C6000A078FDF79BFD2C18A2B209213846FEF78B
:102C7000FDFC220C3846BDE8F8400A21FEF7F6BC00
:102C800000100240010901EB810100F00F0000EB90
:102C90004100C0B27047002102E00A38C0B2491CAE
:102CA0000A28FAD2090740EA11607047F0B589B0E6
:102CB000064600203D4C06900790E06940F08050A9
:102CC000E061E06900F080500090FEF783F9E06970
:102CD00040F00060E061E069062100F000600090D3
:102CE0003046FEF7BBFCC7B207213046FEF7B6FC04
:102CF000C5B208213046FEF7B1FCC4B2042130460B
:102D0000FEF7ACFC012206A93046FEF71AFD28B9F1
:102D1000012207A93046FEF7EDFC08B1FDF7BBFE26
:102D20009DF8180000F00F01000900EB800001EB96
:102D30004000C1B29DF8190000F00F02000900EB3D
:102D4000800002EB40009DF81A20C0B202F00F0391
:102D5000120902EB820203EB4202D6B23B0907F0F2
:102D60000F0203EB830302EB430205F00F032D096F
:102D700005EB850503EB450304F00F05240904EB7F
:102D80008404D2B205EB4404DBB2E4B2914208D32E
:102D900001D1984205D3914206D1984204D1A6426E
:102DA00002D2012009B0F0BD0020FBE70010024074
:102DB0002DE9F04104460025C07B627BA37B42E005
:102DC000012A16D0032A14D0052A12D0072A10D0BF
:102DD000082A0ED00A2A0CD00C2A0AD0042A10D0B5
:102DE000062A0ED0092A0CD00B2A0AD0022A0DD0AE
:102DF00028E01F2B0CD30C2A05D101221346401CBE
:102E000020E01E2B04D30123521C1BE01C2B02D2FA
:102E100003F1010316E011D183B29E0710D164269D
:102E2000B3FBF6F706FB173636B94FF4C876B3FB9B
:102E3000F6F706FB17331BB91D2303E01D2B01D149
:102E4000032201236D1C8D42BAD3D1B2E0736173AA
:102E5000DAB2A27300F0E6F82073BDE8F08170B535
:102E60000446FDF7E3FF05464FF47A7606E0FDF7EA
:102E7000DDFF401BB04201D9032070BD20684068CF
:102E80008006F4D52068416841F0100141600020BF
:102E900070BD000070B504460068416821F0100163
:102EA0004160FDF7C3FF05464FF47A7607E000BFA7
:102EB000FDF7BCFF401BB04201D9032070BD206864
:102EC00040688006F4D5002070BD00000148FEF780
:102ED000D7BB00006C0200202DE9F0410546C07808
:102EE0002B7800F00F01000900EB800001EB40009F
:102EF0006978C0B201F00F02090901EB810102EB10
:102F00004101CCB2A97801F00F02090901EB81015E
:102F100002EB4101CAB2022C28D0042C3BD0062C73
:102F200039D0092C37D00B2C35D01F21521CD6B2EA
:102F30008E4207D9641C0126E4B20C2C02D901246C
:102F4000401CC0B20721B3FBF1F201FB12377F1C1A
:102F5000FDF72DFCE8702046FDF729FC687030462F
:102F6000FDF725FCA8702F70BDE8F08100F5FA612F
:102F7000860705D16426B1FBF6F706FB171646B99E
:102F80004FF4C876B1FBF6F706FB171109B11C2107
:102F9000CCE71D21CAE71E21C8E70168086A496A13
:102FA00089B241EA00407047006881698AB2C1690C
:102FB0008BB2816989B28A4203D0C06961F31F4034
:102FC000704743EA02407047F8B5154C06460D4677
:102FD000E06940F08050E061E06900F080500090CE
:102FE000FDF7F8FFE06940F00060E061E069022170
:102FF00000F0006000903046FEF730FBE8700321DF
:103000003046FEF72BFB687004213046FEF726FBA6
:10301000A87005213046FEF721FB2870F8BD00009E
:1030200000100240F0B56424C1EBC1030927A500DC
:10303000072603EB01130329B3FBF7F100F5FA6050
:10304000114401440AD2401EB0FBF4F201EB90019E
:10305000B0FBF5F0891A0844001D08E0B0FBF4F25B
:1030600001EB9001B0FBF5F0891A0844801CB0FB1D
:10307000F6F106FB1100C0B2F0BD70B50D46064674
:103080000024FFF7ECFE48B93168280C086231686B
:10309000A8B248623046FFF7FDFE00B10124204689
:1030A00070BD70B50D4606460024FFF7D8FE48B93E
:1030B0003168280C88613168A8B2C8613046FFF7D2
:1030C000E9FE00B10124204670BD7047FDF7EABE5D
:1030D00070B596B028216846FDF771F814210AA84A
:1030E000FDF76DF818210FA8FDF769F801240D20F0
:1030F000009000254FF48030CDE9025401900494F3
:1031000002260694CDE907604FF4E0100990684666
:10311000FEF714F908B172B6FEE70F20CDE90A06F2
:103120004FF48060CDE90C5002210AA80E95FEF7FD
:1031300029F808B172B6FEE74FF48070CDE90F4070
:103140000FA8FDF7A9FF002801D072B6FEE716B060
:1031500070BD704710B5406A0021C185C184FEF77B
:10316000BDFC10BD01680C3151E8002F22F49072B3
:1031700041E80023002BF5D10168143151E8002FFC
:1031800022F0010241E80023002BF5D1016B012957
:1031900009D101680C3151E8002F22F0100241E8FA
:1031A0000023002BF5D1202180F84210002101637B
:1031B000704708B590F84210222901D0022008BDBE
:1031C00082684FF480539A4201D1016921B1816A2A
:1031D0009A421BD04AB10AE00268816A5268C2F37F
:1031E00008020A80816A891C08E0026972B10268DB
:1031F000526802F07F020A70816A491C8162C18DA7
:10320000491E0904090CC18503D01BE002685268FD
:10321000F1E70168CA6822F02002CA600168CA6842
:1032200022F48072CA6001684A6922F001024A6190
:10323000202180F8421000214163026B012A03D053
:10324000FEF730FE002008BD016301680C3151E833
:10325000002F22F0100241E80023002BF5D1016875
:103260000A68D20602D50A6849680091818DFEF786
:1032700034FCE7E770B5044600680169E26821F4B0
:103280004051114301612169A06808436169084305
:103290002168CA6841F20C639A430243CA602068FD
:1032A0004169A26921F44071114341611E492068BE
:1032B000884202D1FEF70CF801E0FDF7F9FF00EBC0
:1032C000C00101EB0012606864218000B2FBF0F3E2
:1032D000B3FBF1F36FF018067343B2FBF0F5B2FBEA
:1032E000F0F605EB8305322303EB0515B5FBF1F58D
:1032F000B6FBF1F605F0F00505EB0615B2FBF0F6AE
:10330000B2FBF0F0B0FBF1F06FF01802504306EBA7
:10331000800003EB0010B0FBF1F0216800F00F001B
:103320002844886070BD00000038014081628285B9
:10333000C28500214164222180F84210016921B137
:103340000168CA6842F48072CA6001684A6942F042
:1033500001024A610068C16841F02001C16000209B
:1033600070472DE9F843984617460D460446089ED7
:1033700024E0701C22D0FDF759FDA0EB0800B042FC
:103380001AD8CEB12068C168490717D5802D15D04D
:10339000402D13D00168C94309070FD401680025E7
:1033A000406800902046FFF7DDFE0820606484F846
:1033B00040500120BDE8F8830320FBE72068006847
:1033C00035EA000004D00020B842D2D00020F1E756
:1033D0000120F9E70148FEF783BB000080020020CE
:1033E0000148FEF77DBB0000C8020020FEE7000098
:1033F0000FB4054B10B503A9044A029800F020F958
:1034000010BC5DF814FB0000B53D00082C01002045
:103410000FB47CB50C0009AD01D0611E00E00021A5
:10342000CDE90001064B6A462946089800F008F9E4
:10343000002C02D0009A002111707CBC5DF814FBB6
:10344000473D00080FB4084B10B504A902AA039821
:1034500000F0F6F8044602A9002000F07FFC2046A8
:1034600010BC5DF814FB00005D3D00084FF07F418B
:10347000B1EB400F01D101207047002070470907D0
:10348000090E002804DB00F1E02080F800147047EA
:1034900000F00F0000F1E02080F8141D704702E0FA
:1034A00008C8121F08C1002AFAD1704770470020CF
:1034B00001E001C1121F002AFBD170472DE9FF5F17
:1034C00082B00021DDE90430020DDDF840B0034395
:1034D00018D044F61050A2F2FF324243151411984E
:1034E00001281FD0A5EB0B00401C5FEA000A4FF03B
:1034F00000064E4FDFF83891B046504615D5CAF158
:10350000000413E0119801244AA3012801D16FEAB5
:103510000B010298119AC0E90031C0E9024206B0DD
:10352000BDE8F09FCBF10000DFE704460021404AF0
:10353000491842EB0450CDE9001012E0E00707D033
:1035400032463B4640464946FCF75BFE804689468C
:1035500032463B4610461946FCF753FE06460F46D8
:103560006410002CEAD1DDE90401DDE90023BAF1A1
:10357000000F06DAFCF745FE42464B46FCF741FEDB
:1035800005E0FDF70EF842464B46FDF70AF8044603
:103590000E460022284BFDF78BF803D84FF0FF3082
:1035A000014607E00022254B20463146FCF752FF3A
:1035B000FDF766F8102409E0002C0ADB0A2200233C
:1035C000FCF7BAFE039B30321A55641E50EA010222
:1035D000F2D1641C039AC4F111031444119A012A14
:1035E00003D0012208430DD10AE0084304D0002093
:1035F0004FF0110B119072E7A3EB0B056D1E0DE060
:103600005B4504DD4FF0000205F1010504E003DA3B
:103610004FF00002A5F10105002AECD002981199A3
:10362000C0E90231C0E9004579E70000000014401C
:103630000000F03F300000000000F0430000E03FD9
:103640002DE9FF4F95B09A46884606460025EEE1E3
:10365000252877D100242746F94A0121039400E068
:10366000044316F8013F203B01FA03F01042F7D162
:1036700030782A2811D06FF02F033078A0F1300273
:10368000092A16D8039A44F0020402EB820203EBE3
:1036900042021044761C0390EFE758F8042B039283
:1036A000002A03DA504244F40054039044F0020428
:1036B000761C30782E2816D116F8010F44F0040439
:1036C0002A280DD06FF02F023078A0F13003092B9B
:1036D00009D807EB870302EB4303C718761CF3E70F
:1036E00058F8047B761C30786C280FD006DC4C2808
:1036F00017D068280DD06A2814D104E0742810D09F
:103700007A280FD10DE044F400140AE044F4801448
:1037100001E044F440147278824202D104F580142E
:10372000761C761C307866280BD013DC582877D0AE
:1037300009DC002875D04528F6D04628F4D0472863
:103740001AD193E118E0632835D0642879D0652830
:1037500012D18BE1702873D008DC6728F1D069287A
:103760006FD06E280DD06F2806D1ACE073282CD016
:10377000752874D0782853D05246179990476D1CFD
:1037800054E1C4F30250022809D003280DD0D8F820
:10379000001004280DD00D6008F1040846E1D8F8A7
:1037A0000010EA17C1E90052F6E7D8F800100D80C2
:1037B000F2E70D70F0E718F8041B8DF800100020F8
:1037C0008DF80100EB46012003E058F804BB4FF0F0
:1037D000FF3061074FF0000102D40DE009F1010153
:1037E0008946B9420FDA8145F8DB1BF80910002938
:1037F000F4D108E009F1010189468142FADB1BF8A6
:1038000009100029F6D103985346A0EB0907214679
:103810003846179A00F080FA284400EB090507E0C3
:1038200044E008E10DE01BF8010B52461799904760
:10383000B9F10109F7D2534621463846179AF2E00A
:1038400039E00A21C4F302524FF0000B0091022A22
:1038500006D058F8040BC117032A09D00AE023E068
:1038600008F1070020F00702F2E80201904605E0A7
:1038700000B2C117042A01D140B2C117002906DAEB
:103880000A460021404261EB02012D2202E022059E
:1038900004D52B228DF80420012203E0E20701D099
:1038A0002022F7E7914657E00A2100E010214FF06F
:1038B000000B00910BE010214FF0000B44F00404CA
:1038C0000827009103E008204FF0000B0090C4F39C
:1038D0000252022A05D058F8040B0021032A08D00E
:1038E00008E008F1070020F00702F2E80201904624
:1038F00003E080B2042A00D1C0B24FF000092207D1
:103900002AD53278702A07D0DDF800C08CF0100C70
:103910005CEA0B0C05D00EE040228DF80420012259
:1039200008E050EA010306D030238DF804308DF80A
:10393000052002229146009B83F0080353EA0B0303
:103940000AD150EA010201D1620705D530228DF873
:1039500004204FF001097F1E3278582A04D039A282
:103960000C920CAA02920BE03BA2F9E75B46009A8C
:10397000FCF7E2FC0C9B9B5C029A521E02921370B5
:1039800050EA0102F2D1029804A9081A00F1200BB2
:10399000600702D524F4803400E001275F4502DD92
:1039A000A7EB0B0000E0002000EB0B010090039858
:1039B0004944401A0390E00306D453462146179A1F
:1039C000039800F0A9F90544002706E001A8524633
:1039D000C05D179990476D1C7F1C4F45F6DBE003D7
:1039E0000CD553462146179A039800F095F90544E3
:1039F00004E030205246179990476D1C0099481EEC
:103A000000900029F5DC08E00298029952460078FF
:103A1000491C0291179990476D1CBBF10001ABF155
:103A2000010BF1DC5BE100F065F90544761C3078B0
:103A300000287FF40DAE19B02846BDE8F08F0000D5
:103A40000928010030313233343536373839616274
:103A50006364656600000000303132333435363738
:103A6000383941424344454600000000600700D415
:103A7000062708F1070020F00700F0E8022380463F
:103A800003F0004C5FEA0C0001D097A009E020058C
:103A900001D596A005E0E00701D095A001E0AFF2C6
:103AA0004C001390307823F0004365280CD006DCDE
:103AB000452809D046281DD047287FD13BE06628FD
:103AC00018D067287AD136E00021112F01DB1120B0
:103AD00000E0781CCDE9000104A90CA8FFF7EEFC7A
:103AE000DDE90D010C9A4FF0000B07F1010910926E
:103AF00000914EE04FF000400097CDE9011004A97D
:103B00000CA8FFF7DBFCDDE90D020C9B0F994FF0D1
:103B1000000B91461093009211B9791C00EB01093A
:103B2000B7EB090003D4C0F1FF3B07F10109A9EB92
:103B30000700019042E0012F00DA01270021112F38
:103B400001DD112000E03846CDE9000104A90CA8F0
:103B5000FFF7B4FCDDE90D010C9A00914FF0000B6A
:103B6000B946109221070FD4009A4A4503DA9146CC
:103B700001E0A9F10109B9F1010F05DD109AA9F1E0
:103B80000101515C3029F4D0B84202DA10F1040F7F
:103B900003DA0121CDE9011010E0002803DC8344A1
:103BA000A9EB000102E0411C494500DD8946A0EB7C
:103BB0000B00401C01904FF000400290200705D4FC
:103BC0000198484502DB4FF0FF30019000208DF84E
:103BD0004B0002980DF14B07B0F1004F25D00220A9
:103BE0000C902B200D90029800280CDA4042029095
:103BF0002D200D9007E00A210298FCF787FB303159
:103C0000029007F8011D0C99481E0C900029F2DC67
:103C100002980028EFD1791E0D980870307800F0D6
:103C2000200040F0450007F8020D11A8C01BC01D80
:103C300002901398007800B1012000EB090101986F
:103C400001EBE071029801440398401A401E039072
:103C5000E00306D453462146179A039800F05CF817
:103C600005441398007818B15246179990476D1C77
:103C7000E00323D553462146179A039800F04CF8E9
:103C800005441BE0BBF1000F07DB0098584504DD3D
:103C90001098179910F80B0001E017993020524640
:103CA000904701980BF1010B401E05F101050190B1
:103CB00004D12E205246179990476D1CB9F100018E
:103CC000A9F10109DEDC05E017F8010B524617994E
:103CD00090476D1C0299481E02900029F4DC53465F
:103CE0002146179A03989EE62D0000002B00000045
:103CF000200000002DE9F041044600251E4617462D
:103D0000880404D405E039462020B0476D1C641EA9
:103D1000F9D52846BDE8F0812DE9F041044600259B
:103D20001E469046C80301D5302700E020278804AE
:103D300004D505E041463846B0476D1C641EF9D5F0
:103D40002846BDE8F0814A68002A06D00A68531C5C
:103D50000B6010704868401E486070470A68531C2A
:103D60000B601070704770B5054600244FF47A76EA
:103D700003E0304600F004F8641CAC42F9D370BD97
:103D800070B54FF0E024002265690949A36909680C
:103D90004843A1699942FCD002D2A3EB010302E09F
:103DA000A5EB010633441A440B468242F1D370BDA1
:103DB000EC00002013B505484FF0FF33012269469F
:103DC0000068FEF779F800981CBD0000E8000020AC
:103DD000CEB01C22B74945A8FCF7D8F9FDF76AF820
:103DE000FFF776F9FEF7B4FDFEF7B0FEFEF7CAFE68
:103DF000FEF7CCFDFEF7E0FD42F20302AE49AF480C
:103E0000FCF702FDDFF8B882002408F10307381D33
:103E100000F110014C9120311F9110391E91303169
:103E20001D9110391C9130311B9110391A9130318C
:103E3000199110391891303117911039169130318C
:103E4000DFF88092C0304FF0180A0DF1840B4FF666
:103E5000FF75CDE914019C48FDF71DF8FEF70EF93A
:103E600097490022C91C9948FDF744FC0022944957
:103E70009648FDF766FC2846FEF770F8A9F8004062
:103E800093A1CDE900A10A2124234FF4967208469C
:103E9000FEF7F4FCFCF7D6FC024690A121A8FFF740
:103EA000D1FAFCF7D5FC024690A102A8FFF7CAFAA6
:103EB000FCF7D4FCFCF717FA02460B468FA133A897
:103EC000FFF7C0FAFCF7E2FCFCF70DFA02460B46DE
:103ED0008EA127A8FFF7B6FAFCF7CCFC02468FA10B
:103EE00008A8FFF7AFFAFCF7BFFCFCF7FCF90246A5
:103EF0000B468DA10EA8FFF7A5FAFCF7CDFCFCF749
:103F0000F2F902460B468CA13FA8FFF79BFAFCF79B
:103F1000B7FC02468CA139A8FFF794FAB878009054
:103F2000FA787B788BA18F4802F5FA62FFF78AFA5C
:103F300098F8021000918B4898F8013098F800200A
:103F400089A11438FFF77EFA3878411E062905D872
:103F500045A901EB800050F8041C00E086A12DA8C3
:103F6000FCF746F90C26CDE9006B3346642232217A
:103F70000A20FEF783FC02A8CDE900600C2364222E
:103F800032218220FEF77AFC33A8CDE900601023AD
:103F9000642250210A20FEF771FC27A8CDE90060B9
:103FA000102364226E210A20FEF768FC08A8CDE9E0
:103FB0000060102364228C210A20FEF75FFC0EA80B
:103FC000CDE900601023642250218220FEF756FCC8
:103FD0003FA8CDE90060102364226E218220FEF705
:103FE0004DFC39A8CDE90060102364228C21822089
:103FF000FEF744FC5B481026CDE90060334678228A
:10400000AA210A20FEF73AFC564810231438CDE9BD
:1040100000606422AA218220FEF730FC2DA8CDE9A1
:10402000006010236422C8210A20FEF727FC244ADE
:10403000CDE90045D21DE6210A204C9BFEF7D8FBB6
:10404000CDE90045DDE91E23E6211A20FEF7D0FB6D
:10405000DDE91C23CDE90045E6212A20FEF7C8FB57
:10406000CDE90045DDE91A23E6213A20FEF7C0FB41
:10407000CDE90045DDE91823E6214A20FEF7B8FB2B
:10408000DDE91623CDE90045E6215A20FEF7B0FB15
:10409000CDE90045DDE91423E6216A20FEF7A8FBFF
:1040A00041F28830FCF790FB4FF4FA70FCF7B0FD5A
:1040B000D1E600007C410008C80200203001002049
:1040C0000000002018010020600200206C02002087
:1040D000534D52204259205A686F750041646472F2
:1040E0005F313A202530347800000000416464726A
:1040F0005F323A2025303478000000005069746344
:10410000685F313A20252E3266000000526F6C6CD9
:104110005F313A20252E32660000000052616E6742
:10412000655F313A2025640050697463685F323AF4
:1041300020252E3266000000526F6C6C5F323A20F0
:10414000252E32660000000052616E67655F323ACC
:1041500020256400253034642F253032642F25302B
:10416000326400004C020020253032643A2530329F
:10417000643A2530326400004E2F41009C590008FB
:10418000C4590008B8590008CC59000894590008CF
:10419000AC590008A459000800000000000000000D
:1041A00000000000000000003F4000000000000090
:1041B00000003000400030004000000009000BC04B
:1041C0003D000BC03D00090018C024407FE02240A4
:1041D00031800000180024C01B000D803240018097
:1041E00003801C4027401C800740004010006000F6
:1041F00000000000000000000000000000001F8020
:10420000204040200000402020401F80000000008F
:10421000090006001F8006000900000004000400D9
:104220003F80040004000000001000600000000057
:10423000000000000400040004000400040000006A
:10424000000000400000000000000000002001C04D
:1042500006003800400000001F8020402040204021
:104260001F800000000010403FC000400000000020
:1042700018C02140224024401840000010802040F7
:10428000244024401B80000002000D0011003FC0AC
:10429000014000003C802440244024402380000052
:1042A0001F80244024403440038000003000200060
:1042B00027C03800200000001B80244024402440F8
:1042C0001B8000001C0022C0224022401F800000F2
:1042D0000000000008400000000000000000000096
:1042E0000460000000000000000004000A0011004B
:1042F0002080404009000900090009000900000071
:1043000000004040208011000A0004001800200036
:1043100023402400180000001F802040274029402F
:104320001F400000004007C039000F0001C00040DE
:1043300020403FC0244024401B8000001F802040BC
:10434000204020403080000020403FC020402040DE
:104350001F80000020403FC024402E4030C000009D
:1043600020403FC024402E00300000000F0010808D
:10437000204022403380020020403FC0040004005F
:104380003FC02040204020403FC02040204000004F
:104390000060202020203FC02000200020403FC09F
:1043A00024400B0030C0204020403FC0204000404F
:1043B000004000C03FC03C0003C03C003FC00000C4
:1043C00020403FC00C4023003FC020001F80204001
:1043D000204020401F80000020403FC02440240097
:1043E000180000001F802140214020E01FA0000095
:1043F00020403FC02440260019C0004018C024407F
:104400002440224031800000300020403FC0204046
:104410003000000020003F80004000403F8020002E
:1044200020003E0001C0070038002000380007C00F
:104430003C0007C038000000204039C0060039C0E9
:10444000204000002000384007C038402000000015
:10445000304021C02640384020C00000000000004D
:104460007FE0402040200000000070000C0003802E
:10447000004000000000402040207FE000000000DD
:10448000000020004000200000000000001000108C
:10449000001000100010001000000000400000009C
:1044A00000000000000002800540054003C00040FD
:1044B00020003FC00440044003800000000003804F
:1044C00004400440064000000000038004402440F3
:1044D0003FC000400000038005400540034000004D
:1044E000000004401FC0244024402000000002E0DF
:1044F000055005500650042020403FC004400400F1
:1045000003C000400000044027C00040000000003D
:1045100000100010041027E00000000020403FC001
:104520000140070004C00440204020403FC000403C
:104530000040000007C0040007C0040003C00000E2
:10454000044007C00440040003C000400000038092
:104550000440044003800000041007F004500440AD
:1045600003800000000003800440045007F00010A6
:10457000044007C0024004000400000000000640A0
:104580000540054004C00000000004001F800440F6
:1045900000400000040007800040044007C00040C5
:1045A0000400070004C0018006000400060001C0EA
:1045B000070001C006000000044006C0010006C05C
:1045C000044000000410071004E00180060004000D
:1045D0000000044005C00640044000000000000048
:1045E00004007BE040200000000000000000FFF01D
:1045F00000000000000040207BE0040000000000FC
:10460000400080004000200020004000000000002A
:10461000000000000000000000000000000000009A
:1046200000001FCC000C000000000000000008008B
:10463000300060000800300060000000022003FC31
:104640001E20022003FC1E200220000000000E1885
:1046500011043FFF10840C78000000000F0010844C
:104660000F3800C0077818840078000000780F84A5
:1046700010C411240E9800E40084000808006800AB
:1046800070000000000000000000000000000000BA
:10469000000007E01818200440020000000040025B
:1046A0002004181807E0000000000000024002404B
:1046B00001800FF001800240024000000080008075
:1046C00000800FF800800080008000000001000DD5
:1046D000000E00000000000000000000000000804C
:1046E0000080008000800080008000800000000CBE
:1046F000000C0000000000000000000000000006A8
:10470000001800600180060018002000000007F07B
:10471000080810041004080807F00000000008044E
:1047200008041FFC000400040000000000000E0C40
:1047300010141024104411840E0C000000000C18FA
:1047400010041104110412880C700000000000E035
:104750000320042408241FFC0024000000001F98EC
:10476000108411041104108810700000000007F07C
:1047700008881104110418880070000000001C0053
:10478000100010FC13001C001000000000000E3888
:1047900011441084108411440E38000000000700FA
:1047A000088C10441044088807F000000000000046
:1047B0000000030C030C00000000000000000000DB
:1047C0000001010600000000000000000000008061
:1047D00001400220041008081004000002200220FA
:1047E000022002200220022002200000000010040B
:1047F00008080410022001400080000000000E00A4
:104800001200100C106C10800F00000003E00C1858
:1048100013E4142417C4082807D000000004003C47
:1048200003C41C40074000E4001C000410041FFCEB
:104830001104110411040E880070000003E00C182C
:1048400010041004100410081C10000010041FFCB9
:10485000100410041004080807F0000010041FFCE6
:104860001104110417C410040818000010041FFCE0
:104870001104110017C010000800000003E00C181C
:104880001004100410441C780040000010041FFCA9
:1048900010840080008010841FFC100400001004AD
:1048A00010041FFC100410040000000000030001AD
:1048B000100110011FFE10001000000010041FFC6A
:1048C000110403801464181C1004000010041FFC61
:1048D0001004000400040004000C000010041FFC7D
:1048E0001F0000FC1F001FFC1004000010041FFC30
:1048F0000C04030000E010181FFC100007F008086B
:10490000100410041004080807F0000010041FFC35
:1049100010841080108010800F00000007F008182D
:1049200010241024101C080A07F2000010041FFCB9
:104930001104110011C011300E0C000400000E1CF7
:1049400011041084108410441C380000180010005A
:1049500010041FFC100410001800000010001FF8C5
:1049600010040004000410041FF8100010001E00C2
:1049700011E0001C007013801C0010001FC0103CD0
:1049800000E01F0000E0103C1FC000001004180CE5
:10499000163401C001C01634180C100410001C009D
:1049A000130400FC13041C00100000000804101C79
:1049B0001064108413041C04101800000000000090
:1049C00000007FFE40024002400200000000300074
:1049D0000C0003800060001C000300000000400287
:1049E000400240027FFE00000000000000000000C6
:1049F00020004000400040002000000000010001B5
:104A00000001000100010001000100010000400060
:104A1000400020000000000000000000000000989E
:104A2000012401440144014400FC000410001FFC67
:104A3000008801040104008800700000000000707C
:104A400000880104010401040088000000000070D7
:104A500000880104010411081FFC0004000000F894
:104A6000014401440144014400C800000000010465
:104A700001040FFC1104110411001800000000D6FD
:104A800001290129012901C90106000010041FFCA8
:104A9000008401000100010400FC00040000010486
:104AA000190419FC000400040000000000000003C9
:104AB00000010101190119FE0000000010041FFC93
:104AC0000024004001B4010C0104000000001004A7
:104AD00010041FFC0004000400000000010401FC9D
:104AE0000104010001FC0104010000FC010401FCBF
:104AF000008401000100010400FC0004000000F833
:104B0000010401040104010400F80000010101FF97
:104B1000008501040104008800700000000000709E
:104B2000008801040104010501FF000101040104E2
:104B300001FC00840104010001800000000000CCA1
:104B40000124012401240124019800000000010037
:104B5000010007F80104010400000000010001F851
:104B6000000400040004010801FC000401000180AD
:104B70000170000C001001600180010001F0010CC7
:104B8000003001C00030010C01F001000000010400
:104B9000018C00740170018C01040000010101818D
:104BA0000171000E00180160018001000000018405
:104BB000010C013401440184010C000000000000DC
:104BC0000000000001003EFC400240020000000026
:104BD00000000000FFFF0000000000000000400295
:104BE00040023EFC010000000000000000006000E8
:104BF00080008000400040002000200000000000F5
:104C000000000000000000000000000000000000A4
:104C10000000000000000000000000000000000094
:104C20000000000000000000000000000000000F75
:104C300080380FFE380F80380000000000000000B0
:104C4000000000000000000000000100000600005D
:104C50000C00003800003100000600000C00003895
:104C600000003000000000000000000061800067CC
:104C7000F807F98000618000618000618000618038
:104C80000067F807F9800061800000000000000064
:104C9000000001C0E003E0F00630080418081FFF20
:104CA000FE040E080787F00381E00000000000000A
:104CB00001F000060C00040408060C7001F9C000A5
:104CC0000E00003BE000EC18070808040C18000375
:104CD000E00000000001E00007F003F818041C08E1
:104CE00004170807E1D003C0E00023B0003C08002F
:104CF000200800001000000000000001000031004A
:104D0000003200001C000000000000000000000055
:104D10000000000000000000000000000000000093
:104D20000000000000000000000000007F0001FF04
:104D3000C00780F00C0018100004200002000000E2
:104D40000000002000021000040C00180780F00191
:104D5000FFC0007F00000000000000000000000015
:104D60000000000000000000420000660000660035
:104D7000003C0000180003FFC0001800003C0000C9
:104D80006600006600004200000000000800000805
:104D90000000080000080000080001FFC000080033
:104DA00000080000080000080000080000000000E3
:104DB000000100003100003200001C000000000073
:104DC00000000000000000000000000000000000E3
:104DD00000000000080000080000080000080000B3
:104DE0000800000800000800000800000800000893
:104DF0000000000000000000000000003800003843
:104E0000000038000000000000000000000000006A
:104E1000000000000000000000000000000600008C
:104E20001C000070000180000E0000380000C0006F
:104E30000700001C0000300000000000000000001F
:104E40007F8001FFE0038070060018040008040062
:104E50000806001803807001FFE0007F800000005A
:104E60000000000000000100080100080100080324
:104E7000FFF807FFF8000008000008000008000025
:104E80000000000000000001C03802C05804009873
:104E9000040118040218040418061C1803F8180169
:104EA000E0F800000000000000000001C0E003C0C6
:104EB000F004000804080804080806180803F41899
:104EC00001E7F00001E00000000000000000000029
:104ED0000300000D000011000061000081080301C3
:104EE0000807FFF80FFFF8000108000108000000A4
:104EF0000000000000E007FCD006080806100806C5
:104F00001008061008061838060FF00607C0000043
:104F100000000000000000003F8001FFE00384303B
:104F200002081804100804100804100807181003D9
:104F30000FF00007C000000000000000000003C0E8
:104F4000000700000600000600F80607F806180033
:104F500006E000070000060000000000000000015D
:104F6000E1E003F7F0063410041808041808040CF4
:104F700008040C0806161803F3F001C1E000000055
:104F800000000000F80003FC3003063804020804A7
:104F900002080402080404100308F001FFC0007FA7
:104FA0000000000000000000000000000000000001
:104FB00000000000703800703800703800000000F9
:104FC00000000000000000000000000000000000E1
:104FD0000000000000000000301A00301C0000003B
:104FE00000000000000000000000000000000000C1
:104FF00000000008000014000022000041000080B2
:105000008001004002002004001008000800000099
:10501000000000002100002100002100002100000C
:1050200021000021000021000021000021000021BA
:10503000000000000000000000000800080400104C
:10504000020020010040008080004100002200009A
:10505000140000080000000000000003C00004C0AD
:1050600000040000080038080F380808380810004D
:105070000C300007E00003C000000000000000004A
:105080003F8000FFE0038070020F1006708804C0AC
:1050900088048308047F8802C09003012000FE403A
:1050A0000000080000180001F8003E0801C20007D7
:1050B000020007E20000FE00001FC80001F8000027
:1050C0003800000804000807FFF807FFF804080884
:1050D00004080804080804080806180803F418015E
:1050E000E7F00001E0000000000000003F8001FF49
:1050F000E00380700200180400080400080400089F
:105100000400100600200780C0000000040008070B
:10511000FFF807FFF8040008040008040008040072
:105120001802001003807001FFE0007F8000000083
:1051300004000807FFF807FFF8040808040808043B
:105140000808040808043E080400080600180100C6
:105150006000000004000807FFF807FFF8040808D3
:10516000040800040800040800043E0006000006CD
:105170000000018000000000000000003F8001FFEF
:10518000E003807006001804000804020804020806
:105190000203F00783F00002000002000400080789
:1051A000FFF807FFF80408080008000008000008DE
:1051B0000000080004080807FFF807FFF8040008CB
:1051C00000000000000004000804000804000807B4
:1051D000FFF807FFF80400080400080400080000B6
:1051E00000000000000000000006000007000001B1
:1051F00004000104000104000307FFFE07FFFC0494
:10520000000004000004000004000807FFF807FF86
:10521000F8040C08001800003E0004C7800503C80D
:105220000600F8040038040018000008040008070D
:10523000FFF807FFF804000800000800000800005D
:1052400008000008000008000018000060000000CE
:1052500004000807FFF807800807FC00007FC00073
:1052600003F80007C000780007800807FFF807FF71
:10527000F804000804000807FFF807000803C0004E
:1052800000E000003800001E000007000001C0041C
:1052900000F007FFF8040000000000007F8001FF1D
:1052A000E0038070060018040008040008060018D7
:1052B00003003001FFE0007F8000000004000807C9
:1052C000FFF807FFF80404080404000404000404C1
:1052D00000040400060C0003F80001F000000000C8
:1052E000000000007F8001FFE0038070060088045A
:1052F00000880400C806003C03003E01FFE6007F72
:105300008400000004000807FFF807FFF8040808FD
:10531000040800040C00040F00040BC00610F00386
:10532000F03801E00800000800000001E0F803F098
:1053300030063010041808041808040C08040C087F
:105340000206180207F00781E00000000180000655
:10535000000004000004000004000807FFF807FF35
:10536000F8040008040000040000060000018000AA
:1053700004000007FFE007FFF00400180000080029
:10538000000800000800000800000804001007FFE3
:10539000E004000004000006000007E00007FE0033
:1053A000041FE00001F80000380001E0043E00079F
:1053B000C00006000004000004000007E00007FF32
:1053C000C0041FF80007C007F80007FF80043FF87B
:1053D0000007C004F80007000004000000000004FB
:1053E000000806001807C07805F1C8003E00001F3D
:1053F000800463E80780F806001804000800000035
:1054000004000006000007800007E008047C080094
:105410001FF80007F800180804E00807000006005D
:10542000000400000000000100080600380400F835
:105430000403E8040F08047C0805F00807C0080707
:1054400000180400600000000000000000000000E0
:10545000000000000000003FFFFE200002200002CC
:1054600020000220000220000200000000000000D6
:10547000000008000007000000C00000380000061F
:10548000000001C000003000000E0000010000001C
:105490000000000000002000022000022000022086
:1054A00000022000023FFFFE00000000000000009C
:1054B00000000000000000000000000000080000E4
:1054C0001000003000002000003000001000000834
:1054D00000000000000000000000010000010000CA
:1054E00001000001000001000001000001000001B6
:1054F00000000100000100000100000100000000A8
:10550000000000000020000020000010000010003B
:10551000000000000000000000000000000000008B
:105520000000000000F00019F8001B18002208001D
:105530002608002408002410003FF8001FF800008F
:105540000800001800000004000007FFF80FFFF03B
:10555000001818001008002008002008003018006B
:105560001FF0000FC00000000000000007C0001F77
:10557000F0001830002008002008002008003C0837
:10558000001C10000060000000000000000000008F
:1055900007C0001FF0003818002008002008002075
:1055A0000804101007FFF80FFFF0000010000000C3
:1055B0000000000000000007C0001FF000123000D3
:1055C0002218002208002208003208001E10000ED7
:1055D000200000000000000020000020080020083B
:1055E00001FFF803FFF8062008042008042008073C
:1055F000200003000000000000000000000E000E6C
:105600006E001FF30031B10020B10020B1003191D4
:10561000001F13002E1E00200E00300000000004AA
:10562000000807FFF80FFFF8001008002000002016
:1056300000002008003FF8001FF8000008000000EC
:1056400000000000000000200800200800200806DC
:105650003FF8063FF80000080000080000080000BE
:105660000000000000000000000000000300000334
:10567000002001002001002003063FFE063FFC0041
:10568000000000000000000000000004000807FF08
:10569000F80FFFF8000188000300002FC00038F861
:1056A0000020380020080000080000000000000072
:1056B000000004000804000804000807FFF80FFFBA
:1056C000F8000008000008000008000000000000CA
:1056D000002008003FF8003FF800100800200000FC
:1056E0003FF8003FF8001008002000003FF8003F9E
:1056F000F8000008000000002008003FF8003FF814
:10570000001008001000002000002008003FF800F2
:105710001FF80000080000000000000007C0000F94
:10572000F000183000300800200800200800300881
:10573000001830000FF00007C0000000000000005B
:105740002001003FFF003FFF001011002009002052
:1057500008002008003038001FF0000FC0000000D3
:105760000000000007C0001FF000381800200800EB
:105770002008002009001011001FFF003FFF00005B
:1057800001000000002008002008002008003FF869
:10579000003FF80008080010080020080020000062
:1057A0003000003000000000000000000000000C8D
:1057B00078001E1800330800230800210800218803
:1057C0000021980030F00038600000000000000068
:1057D000200000200000200000FFF003FFF8002060
:1057E0000800200800200800003000000000000031
:1057F000000000002000003FF0007FF800001800CB
:105800000008000008002010003FF8007FF00000B2
:1058100010000000000000002000003000003C00EC
:10582000003F800023F0000078000070002380001B
:105830003C00003000002000002000003C00003F41
:10584000E00023F80000E0002700003E00003FE0F9
:105850000021F80001E0003E0000200000000000F0
:105860002008002008003838003E68002780000328
:10587000C8002CF80038380020180020080000006C
:10588000000000002000003003003C01003F8300C6
:1058900023EC000070002380003C0000200000206A
:1058A0000000000000000000000000380800203860
:1058B0000020F80023E8002F88003E080038080088
:1058C0002018000070000000000000000000000030
:1058D000000000000000000008000014001FF7FC9A
:1058E0003000062000020000000000000000000060
:1058F0000000000000000000000000000000FFFFAA
:10590000FF00000000000000000000000000000098
:105910000000000000002000023000061FF7FC001D
:10592000140000080000000000000000000000005B
:1059300000000000000000180000600000400000AF
:1059400040000020000010000008000004000004D7
:1059500000000C000010000001020203040506070D
:1059600008090A0B0C0D0E0F1010010202030405AA
:10597000060708090A0B0C0D0E0F1010000000009E
:1059800000000000010203040607080900000000EF
:105990000102030446726964617900004D6F6E6410
:1059A0006179000053756E6461790000536174750C
:1059B00072646179000000005765646E657364610C
:1059C00079000000547565736461790054687572DC
:1059D0007364617900000000F8590008000000209D
:1059E0003001000046070008D45A000830010020AA
:1059F00008060000AE3400089128093FF82108216C
:105A0000082FE80610133FF8200827C82448244828
:105A100027C8400840288010100B4020A011101209
:105A20000885F648180C47C41454145427D4E45479
:105A30002406181224442554048801100110F9107A
:105A4000211027BC2106180EFB3823B825542554F5
:105A50003992E110411A180B01102080208820B0E3
:105A60003EC00817842684387C2112011CFFFE01E9
:105A70000649024B044002680D444424442448145F
:105A800048145014601443FFFE1E21F01110114AF7
:105A900014020EF4181313F811081110109014A02A
:105AA000184010A003180C06A01B40100211190288
:105AB0002BF7FE0A49021B1440222916138002020A
:105AC0001C205A251E7A262634FFFF01821053120D
:045AD0007A00000058
:0400000508000131BD
:00000001FF
